:020000040800F2
:10000000B826002075030008D72C000881040008DA
:10001000D32C000893040008B1440008000000003D
:10002000000000000000000000000000B102000815
:10003000A3040008000000000D030008B533000809
:100040008F0300088F0300088F0300088F03000848
:100050008F0300088F0300088F0300088F03000838
:100060008F0300088F0300088F0300088F03000828
:100070008F0300088F0300088F0300088F03000818
:100080008F0300088F0300088F0300088F03000808
:100090008F0300088F0300088F0300088F030008F8
:1000A0008F0300088F0300088F0300088F030008E8
:1000B000913500088F0300088F0300088F030008A4
:1000C0008F0300088F0300088F0300088F030008C8
:1000D0008F030008814200088F0300089142000846
:1000E0008F0300088F030008000000008F03000842
:1000F0008F0300088F0300088F0300088F03000898
:100100008F0300088F0300088F0300088F03000887
:100110008F0300088F0300088F0300088F03000877
:100120008F0300088F0300088F0300088F03000867
:100130008F0300088F0300088F0300088F03000857
:1001400000000000000000000000000000000000AF
:100150008F0300088F0300088F0300088F03000837
:100160008F0300088F0300088F0300088F03000827
:100170008F0300088F0300088F03000800000000B1
:100180008F0300088F0300088F0300088F03000807
:100190008F0300088F0300088F0300088F030008F7
:1001A0008F0300088F0300088F0300088F030008E7
:1001B0008F0300088F0300088F0300088F030008D7
:1001C0008F0300088F0300088F0300088F030008C7
:1001D0008F0300088F0300088F0300088F030008B7
:1001E0008F0300088F0300088F0300088F030008A7
:1001F0008F0300088F0300088F0300088F03000897
:100200008F0300088F0300088F0300088F03000886
:100210008F0300088F0300088F0300088F03000876
:100220008F0300088F0300088F0300080000000000
:100230008F0300088F030008000000008F030008F0
:100240008F0300088F0300088F0300088F03000846
:100250008F0300088F0300088F0300088F03000836
:100260008F0300088F0300088F0300088F03000826
:100270008F0300088F0300088F03000800000000B0
:100280008F030008000000008F030008000000003A
:10029000000000008F030008DFF810D000F0DEF847
:1002A00000480047654F0008AFF30080B8260020E3
:1002B0002D4B19680868B0E8F04F80F30988BFF348
:1002C0006F8F4FF0000080F311887047000000002E
:1002D00008480068006880F308884FF0000080F349
:1002E000148862B661B6BFF34F8FBFF36F8F00DF24
:1002F00000BF00BF08ED00E0DFF80C00016841F42A
:1003000070010160704700BF88ED00E0EFF30980E5
:10031000BFF36F8F144B1A681EF0100F08BF20ED4B
:10032000108A20E9F04F106009B44FF0500072B607
:1003300080F31188BFF34F8FBFF36F8F62B604F065
:100340007DFE4FF0000080F3118809BC1968086831
:10035000B0E8F04F1EF0100F08BFB0EC108A80F329
:100360000988BFF36F8F704738000020EFF30580D6
:10037000704700000648804706480047FEE7FEE752
:10038000FEE7FEE7FEE7FEE7FEE7FEE7FEE7FEE745
:10039000FD340008990200082DE9F05F05460020B1
:1003A00092469B4688460646814640241BE02846E6
:1003B00041464746224600F041F853465A46C01A85
:1003C000914110D311461846224600F028F82D1A04
:1003D00067EB01084F4622460120002100F01FF87C
:1003E00017EB00094E41201EA4F10104DFDC484652
:1003F00031462A464346BDE8F09FD2B201E000F8FC
:10040000012B491EFBD270470022F6E710B51346B8
:100410000A4604461946FFF7F0FF204610BD202A81
:1004200004DB203A00FA02F1002070479140C2F14B
:10043000200320FA03F3194390407047202A04DB7D
:10044000203A21FA02F00021704721FA02F3D0404D
:10045000C2F120029140084319467047064C074DEF
:1004600006E0E06840F0010394E807009847103484
:10047000AC42F6D3FFF714FF585300087853000836
:100480001EF0040F0CBFEFF30880EFF3098002F0B9
:1004900073BA00BFFEE710B502F04EFF02F0FEFE99
:1004A00010BD704701B9704700BFFEE770B5044644
:1004B0001D460023B5F5804F13D154F822300C4867
:1004C0000340D1E9000640EA06108E6840EA0620A3
:1004D0008E8940EA06408E693043034344F8223057
:1004E00003E06FF0704044F82200002070BD00006F
:1004F0000000F0CF10B502460023086852F8203003
:100500001B480340D1E901042043CC6820430C6917
:1005100020434C6920438C692043CC6920430C6AFA
:1005200020434C6A20438C6A2043CC6A20430C6BE6
:1005300020438C6B20434C6B20430343886808287E
:1005400001D143F04003086842F82030086BB0F551
:10055000801F05D1086818B110680C6B204310602B
:10056000086818B110684C6B20431060002010BD63
:100570008004C0FF30B5034614460022601C53F8C7
:10058000202002F04042D1E9000540EA05108D68C4
:1005900040EA05208D8940EA0545088A401E45EA63
:1005A0000055087D801E45EA00608D69284302439E
:1005B000601C43F82020186800F4801038B1586897
:1005C00020F47002088A401E42EA00525A6000205D
:1005D00030BD00000348006840F001000149086098
:1005E0007047000020040058F8B502460B46002171
:1005F000002600240020824D00BFFCE0012707FAFE
:1006000001F61F6807EA0604B4427CD15F68022F36
:1006100002D05F68122F1AD14FEAD10C02F12007E5
:1006200057F82C004F074FEAD76C0F2707FA0CF743
:10063000B8434FEA417C4FEADC6C1F6907FA0CF7BC
:1006400038434FEAD10C02F1200747F82C0010681C
:100650004FEA410C032707FA0CF7B8431F7907F05C
:1006600003074FEA410C07FA0CF7384310605F6844
:10067000012F08D05F68022F05D05F68112F02D0CC
:100680005F68122F17D190684FEA410C032707FAD1
:100690000CF7B8434FEA410CDF6807FA0CF7384310
:1006A0009060506801278F40B8431F79C7F3001747
:1006B0008F4038435060D0684FEA410C032707FA57
:1006C0000CF7B8434FEA410C9F6807FA0CF7384320
:1006D000D0605F6807F08057B7F1805F95D100BFA9
:1006E000484F3F6847F00207DFF818C1CCF80070A8
:1006F00067463F6807F00207009700BF00BF424F00
:100700004FEA910C00E075E057F82C008F074FEA94
:10071000177C0F2707FA0CF7B8433C4FBA4201D1B8
:1007200000272DE03A4FBA4201D1012728E0394F86
:10073000BA4201D1022723E0374FBA4201D1032741
:100740001EE0364FBA4201D1042719E0344FBA42B5
:1007500001D1052714E0334FBA4201D106270FE03B
:10076000314FBA4201D107270AE0304FBA4201D1D6
:10077000082705E02E4FBA4201D1092700E00A27D9
:100780004FEA817C4FEA1C7C07FA0CF738431E4F76
:100790004FEA910C47F82C002868A0435F6807F4E3
:1007A0008037B7F5803F00D1204328606868A043B8
:1007B0005F6807F40037B7F5003F00D12043686059
:1007C0004FF0B0473868A0435F6807F48017B7F56B
:1007D000801F00D120434FF0B04738607868A043B5
:1007E0005F6807F40017B7F5001F00D120434FF0F2
:1007F000B0477860491C1029FFF400AFF8BD000035
:1008000080000058F44402580804005800000258C0
:100810000004025800080258000C02580010025848
:100820000014025800180258001C025800200258F8
:1008300000240258014800687047000008000020AA
:1008400010B5032000F0E2F80F2000F007F808B11F
:10085000012010BD00F08CF80020FAE770B50446C6
:100860000E4800784FF47A71B1FBF0F00C4909683A
:10087000B1FBF0F5284601F000FF08B1012070BD82
:10088000102C07D200222146501E00F082F80548A5
:10089000046001E00120F2E70020F0E710000020F2
:1008A000000000200C0000204178154A11600178FA
:1008B000F9B1121D41681160017B0907C27A41EA52
:1008C0000261827A41EAC241427B41EA8241827BF3
:1008D00041EA4241C27B41EA0241427A41EA0221B5
:1008E000027A41EA420102781143054A0832116056
:1008F00005E00021024A121D1160121D11607047AF
:1009000098ED00E000BF00BF00BFBFF35F8F00BFE6
:1009100000BF00BF0548006820F48030034908602C
:1009200000200249703108607047000024ED00E0AB
:1009300040F001010D4A11600C497039096841F419
:1009400080310A4A703A116000BF00BF00BFBFF398
:100950004F8F00BF00BF00BF00BF00BF00BFBFF38D
:100960006F8F00BF00BF00BF7047000094ED00E034
:10097000704701460846002809DB00F01F030122EA
:100980009A4043099B0003F1E023C3F8002100BF14
:1009900070472DE9F05F80460D46164603F09AFD3C
:1009A000074639462A46334601F00700C0F1070AD8
:1009B000BAF1040F02D94FF0040A01E0C0F1070AAE
:1009C000D14600F1040ABAF1070F02D24FF0000A33
:1009D00001E0A0F1030AD4464FF0010A0AFA09FA2D
:1009E000AAF1010A0AEA020A0AFA0CFA4FF0010B0C
:1009F0000BFA0CFBABF1010B0BEA030B4AEA0B04FD
:100A00002146404603F06EFDBDE8F09F00BF00F0B8
:100A10000702064B19684FF6FF031940044B0B43BE
:100A200043EA0221014B196000BF70470CED00E062
:100A30000000FA0510B501F067F90949096801F4E9
:100A400070614FF4807292FAA2F2B2FA82F2D1404F
:100A5000044A515CC840044908600846006810BD5B
:100A600018440258485200080000002010B501F058
:100A700003F90749096801F07001102292FAA2F205
:100A8000B2FA82F2D140034A515CC84010BD000066
:100A9000204402584852000870B501460022012047
:100AA000002300249FED811AB0EE410A9FED7F1ACA
:100AB000F0EE410A7E4D2D6805F003027C4D2D6855
:100AC000C5F305307A4D2D1D2D6805F01003784DC6
:100AD00014352D68C5F3CC0515FB03F501EE105A4E
:100AE000B8EE411AB0EE410A22B1012A4DD0022AD5
:100AF0007DD169E06E4D283D2D68C5F340152DB3BD
:100B00006B4D283D2D68C5F3C1066A4D25FA06F4E4
:100B1000B4FBF0F501EE105AF8EE411A9FED661A9B
:100B200080EE012A624D10352D68C5F3080501EEEF
:100B3000105AB8EE411A32EE011AB7EE002A31EE21
:100B4000021A21EE811AF0EE410A1DE0594DB5FB63
:100B5000F0F501EE105AF8EE411A9FED571A80EEAB
:100B6000012A534D10352D68C5F3080501EE105AC2
:100B7000B8EE411A32EE011AB7EE002A31EE021A2F
:100B800021EE811AF0EE410A5EE04C4DB5FBF0F526
:100B900001EE105AB8EE412A9FED471AC0EE011A35
:100BA000434D10352D68C5F3080501EE105AB8EE17
:100BB000411A31EE811AF7EE001A31EE211A22EEB7
:100BC000011AF0EE410A3FE03D4DB5FBF0F501EEB4
:100BD000105AF8EE411A9FED381A80EE012A344D72
:100BE00010352D68C5F3080501EE105A00E00CE041
:100BF000B8EE411A32EE011AB7EE002A31EE021AAF
:100C000021EE811AF0EE410A1EE02C4DB5FBF0F505
:100C100001EE105AB8EE412A9FED271AC0EE011AD4
:100C2000234D10352D68C5F3080501EE105AB8EEB6
:100C3000411A31EE811AF7EE001A31EE211A22EE36
:100C4000011AF0EE410A00BF00BF194D10352D68A2
:100C5000C5F346256D1C01EE105AB8EE411AC0EEE0
:100C6000811ABCEEE11A81ED001A114D10352D6884
:100C7000C5F306456D1C01EE105AB8EE411AC0EEE0
:100C8000811ABCEEE11A81ED011A094D10352D686B
:100C9000C5F306656D1C01EE105AB8EE411AC0EEA0
:100CA000811ABCEEE11A81ED021A70BD000000004D
:100CB000284402580090D0030000004600093D007F
:100CC00040787D0170B501460022012000230024F8
:100CD0009FED811AB0EE410A9FED7F1AF0EE410AB6
:100CE0007E4D2D6805F003027C4D2D68C5F305503F
:100CF0007A4D2D1D2D6805F48073784D1C352D68B7
:100D0000C5F3CC0515FB03F501EE105AB8EE411AF8
:100D1000B0EE410A22B1012A4DD0022A7DD169E00C
:100D20006E4D283D2D68C5F340152DB36B4D283D04
:100D30002D68C5F3C1066A4D25FA06F4B4FBF0F53B
:100D400001EE105AF8EE411A9FED661A80EE012A64
:100D5000624D18352D68C5F3080501EE105AB8EE3E
:100D6000411A32EE011AB7EE002A31EE021A21EED4
:100D7000811AF0EE410A1DE0594DB5FBF0F501EE88
:100D8000105AF8EE411A9FED571A80EE012A534D82
:100D900018352D68C5F3080501EE105AB8EE411A52
:100DA00032EE011AB7EE002A31EE021A21EE811A54
:100DB000F0EE410A5EE04C4DB5FBF0F501EE105A45
:100DC000B8EE412A9FED471AC0EE011A434D18357F
:100DD0002D68C5F3080501EE105AB8EE411A31EE40
:100DE000811AF7EE001A31EE211A22EE011AF0EE06
:100DF000410A3FE03D4DB5FBF0F501EE105AF8EE2B
:100E0000411A9FED381A80EE012A344D18352D68AD
:100E1000C5F3080501EE105A00E00CE0B8EE411AE7
:100E200032EE011AB7EE002A31EE021A21EE811AD3
:100E3000F0EE410A1EE02C4DB5FBF0F501EE105A24
:100E4000B8EE412A9FED271AC0EE011A234D18353E
:100E50002D68C5F3080501EE105AB8EE411A31EEBF
:100E6000811AF7EE001A31EE211A22EE011AF0EE85
:100E7000410A00BF00BF194D18352D68C5F346253E
:100E80006D1C01EE105AB8EE411AC0EE811ABCEE8C
:100E9000E11A81ED001A114D18352D68C5F306458C
:100EA0006D1C01EE105AB8EE411AC0EE811ABCEE6C
:100EB000E11A81ED011A094D18352D68C5F3066553
:100EC0006D1C01EE105AB8EE411AC0EE811ABCEE4C
:100ED000E11A81ED021A70BD00000000284402589A
:100EE0000090D0030000004600093D0040787D01DD
:100EF0002DE9F041044600250026206800F000603E
:100F0000B0F1006F30D1606E48B1B0F5801F0DD0E8
:100F1000B0F5001F10D0B0F5401F15D113E0F9480F
:100F2000006840F40030F74908600FE00221201DFE
:100F300002F054F8054609E0022104F1240002F011
:100F4000E5F8054602E001E0012500BF00BF55B904
:100F5000EC482430006820F44010616E0843E949F1
:100F60002431086000E02E43208800F48070B0F542
:100F7000807F2DD1606D05281AD2DFE800F0030ACA
:100F800010171800DF48006840F40030DD490860A1
:100F900010E00021201D02F021F805460AE00021A2
:100FA00004F1240002F0B2F8054603E002E001E09B
:100FB000012500BF00BF55B9D2482430006820F099
:100FC0000700616D0843CF492431086000E02E43DB
:100FD000208800F40070B0F5007F33D1A06D802828
:100FE00017D003DC40B140281CD10CE0C02817D03A
:100FF000B0F5807F16D114E0C248006840F400309C
:10100000C049086010E00021201D01F0E7FF0546FF
:101010000AE0002104F1240002F078F8054603E01C
:1010200002E001E0012500BF00BF55B9B5482430FA
:10103000006820F4E070A16D0843B24924310860D3
:1010400000E02E43208800F48060B0F5806F38D136
:10105000D4F8A400B0F5800F19D004DC50B1B0F57D
:10106000001F1DD10DE0B0F5C00F17D0B0F5000F77
:1010700016D114E0A348006840F40030A14908608C
:1010800010E00021201D01F0A9FF05460AE0002123
:1010900004F1240002F03AF8054603E002E001E022
:1010A000012500BF00BF5DB996482C30006820F4D0
:1010B0006000D4F8A410084392492C31086000E085
:1010C0002E43208800F40060B0F5006F38D1D4F8CA
:1010D000A800B0F1007F19D004DC50B1B0F1807FDE
:1010E0001DD10DE0B0F1407F17D0B0F1806F16D167
:1010F00014E08448006840F400308249086010E041
:101100000021201D01F06AFF05460AE0002104F1DC
:10111000240001F0FBFF054603E002E001E00125A9
:1011200000BF00BF5DB977482C30006820F0E06058
:10113000D4F8A810084373492C31086000E02E430E
:10114000206800F00070B0F1007F27D1A06CA0B142
:10115000102804D0202809D030280FD10CE069488D
:10116000006840F400306749086009E00221201D52
:1011700001F034FF054603E002E001E0012500BF75
:1011800000BF55B95F482030006820F03000A16CE6
:1011900008435C492031086000E02E43208800F4B9
:1011A0008050B0F5805F36D1E06DB0F5005F19D0AA
:1011B00004DC50B1B0F5805F1DD10DE0B0F5405FAB
:1011C00017D0B0F5804F16D114E04E48006840F4B7
:1011D00000304C49086010E00021201D01F0FEFEA7
:1011E00005460AE0002104F1240001F08FFF0546C6
:1011F00003E002E001E0012500BF00BF55B941480E
:101200002430006820F4E040E16D08433D4924317A
:10121000086000E02E43208800F40050B0F5005F25
:1012200034D1206EB0F5403F1DD007DC68B1B0F579
:10123000803F0BD0B0F5003F18D10DE0B0F5802F06
:1012400012D0B0F5A02F11D10FE011E00121201D27
:1012500001F0C4FE05460BE0012104F1240001F079
:1012600055FF054604E003E002E001E0012500BF70
:1012700000BF55B923482430006820F4E020216ED7
:10128000084320492431086000E02E43208800F400
:101290008040B0F5804F38D1D4F8AC00B0F1405F59
:1012A0001DD007DC68B1B0F1805F0BD0B0F1005FFA
:1012B00018D10DE0B0F1804F12D0B0F1A04F11D194
:1012C0000FE011E00121201D01F088FE05460BE032
:1012D000012104F1240001F019FF054604E003E0B8
:1012E00002E001E0012500BF00BF6DB905482C30C8
:1012F000006820F0E040D4F8AC10084301492C31DC
:10130000086002E02C4402582E43208800F400407C
:10131000B0F5004F26D1E06E98B1B0F1805F03D0F8
:10132000B0F1005F0ED106E0FA48006840F40030EA
:10133000F849086008E00121201D01F04FFE054634
:1013400002E001E0012500BF00BF55B9F14824309B
:10135000006820F04050E16E0843EE4924310860F7
:1013600000E02E43206800F08070B0F1807F27D12C
:10137000606CA0B1012804D0022809D003280FD145
:101380000CE0E448006840F40030E249086009E0FD
:101390000221201D01F022FE054603E002E001E0EB
:1013A000012500BF00BF55B9DA482030006820F0A1
:1013B0000300616C0843D7492031086000E02E43E8
:1013C000206800F48000B0F5800F7DD1D24800681D
:1013D00040F48070D0490860FFF72CFA074606E019
:1013E000FFF728FAC01B642801D9032505E0CA4885
:1013F000006800F480700028F2D000BF8DBBC548A3
:101400004430006800F44070B4F8B01001F440714A
:10141000884214D0BF484430006820F44078BD486A
:101420004430006840F48030BA49443108600846CE
:10143000006820F4803008600846C0F80080D4F8C6
:10144000B000B0F5807F15D1FFF7F4F9074609E049
:10145000FFF7F0F9C01B41F28831884202D9032519
:1014600007E038E0AB4844300068C0F34000002893
:10147000EED000BF4DBB00BFB4F8B00000F4407028
:10148000B0F5407F0ED1A3481C38006820F47C5191
:10149000A24AD4F8B000104041EA10109D491C390E
:1014A000086007E09B481C38006820F47C5099498C
:1014B0001C390860974844300068B4F8B010C1F394
:1014C0000B010843934901E006E002E04431086063
:1014D00002E02E4300E02E43207800F0010068B3C4
:1014E000A06F182819D005DC48B1082808D01028AA
:1014F00016D10BE0202811D0282811D10FE011E0DF
:101500000121201D01F06AFD05460BE0012104F1D7
:10151000240001F0FBFD054604E003E002E001E0E9
:10152000012500BF00BF55B97A482830006820F077
:101530003800A16F084377492831086000E02E4346
:10154000207800F00200022828D1606F062815D20A
:10155000DFE800F003040A11121311E00121201D3D
:1015600001F03CFD05460BE0012104F1240001F0EF
:10157000CDFD054604E003E002E001E0012500BFE7
:1015800000BF55B963482830006820F00700616F3C
:10159000084360492831086000E02E43207800F0BD
:1015A000040004282AD1D4F89000062815D2DFE8D8
:1015B00000F003040A11121311E00121201D01F0B3
:1015C0000DFD05460BE0012104F1240001F09EFD14
:1015D000054604E003E002E001E0012500BF00BF92
:1015E0005DB94C482C30006820F00700D4F890100A
:1015F000084348492C31086000E02E43207800F071
:101600002000202836D1D4F88C00B0F1405F1DD0E6
:1016100007DC68B1B0F1805F0BD0B0F1005F18D18A
:101620000DE0B0F1804F12D0B0F1A04F11D10FE01A
:1016300011E00021201D01F0D1FC05460BE0022144
:1016400004F1240001F062FD054604E003E002E03D
:1016500001E0012500BF00BF5DB92E4828300068B9
:1016600020F0E040D4F88C1008432A492831086063
:1016700000E02E43207800F04000402836D1D4F816
:101680009800B0F5406F1DD007DC68B1B0F5806FF1
:101690000BD0B0F5006F18D10DE0B0F5805F12D01F
:1016A000B0F5A05F11D10FE011E00021201D01F085
:1016B00095FC05460BE0022104F1240001F026FD13
:1016C000054604E003E002E001E0012500BF00BFA1
:1016D0005DB910482C30006820F4E050D4F8981020
:1016E00008430C492C31086000E02E43207800F0BC
:1016F000800080283BD1D4F89C00B0F5C04F24D0A6
:101700000EDCA0B1B0F5005F12D0B0F5804F1FD154
:1017100014E000002C44025800480258FFFCFF0F60
:10172000B0F5004F12D0B0F5204F11D10FE011E00D
:101730000021201D01F052FC05460BE0022104F1BE
:10174000240001F0E3FC054604E003E002E001E0D0
:10175000012500BF00BF4DB9B248006820F46040C9
:10176000D4F89C100843AF49086000E02E4320786D
:1017700000F00800082816D1D4F88000B0F5805F8A
:1017800006D1022104F1240001F0C0FC06430AE066
:10179000A448001F006820F44050D4F8801008438B
:1017A000A049091F0860207800F01000102814D10B
:1017B000D4F89400B0F5807F06D1022104F1240012
:1017C00001F0A4FC064308E09648006820F440704D
:1017D000D4F89410084393490860206800F400206E
:1017E000B0F5002F26D1D4F8A00030B1B0F5803F7D
:1017F00009D0B0F5003F0ED10CE00021201D01F012
:10180000EDFB054609E0022104F1240001F07EFC15
:10181000054602E001E0012500BF00BF4DB9814847
:10182000006820F44030D4F8A01008437D490860D7
:1018300000E02E43206800F48020B0F5802F2DD1E9
:10184000D4F88400B0F5801F06D0B0F5001F0CD08E
:10185000B0F5401F11D10FE072482C38006840F4F9
:10186000003070492C39086009E0012104F124009E
:1018700001F04CFC054602E001E0012500BF00BF7D
:101880005DB96848001F006820F44010D4F8841047
:1018900008436449091F086000E02E43206800F4F3
:1018A0008030B0F5803F24D1E06C18B1B0F5803FB6
:1018B0000FD108E05B482C38006840F400305949EB
:1018C0002C39086007E00221201D01F087FB054646
:1018D00001E0012500BF00BF55B952480C3800682F
:1018E00020F48030E16C08434E490C39086000E078
:1018F0002E43206800F00050B0F1005F05D10221B6
:1019000004F1240001F002FC0643206800F40030DA
:10191000B0F5003F27D1E06FA0B1B0F5807F06D0D1
:10192000B0F5007F0CD0B0F5407F0CD109E03D4808
:101930002C38006840F400303A492C39086004E043
:1019400003E002E001E0012500BF00BF55B93548C2
:10195000001F006820F44070E16F08433149091FFF
:10196000086000E02E43206800F48010B0F5801F6E
:1019700009D12C480838006820F00040216F084346
:10198000284908390860206800F08050B0F1805F75
:101990000AD124484838006820F48040D4F8B410B4
:1019A0000843204948390860206800F40010B0F569
:1019B000001F09D11B480838006820F08070A16E14
:1019C0000843184908390860206800F08040B0F1E9
:1019D000804F11D100BF13484838006820F4004000
:1019E00010494839086008460068D4F8B810084320
:1019F0000C494839086000BF206800F00040B0F191
:101A0000004F09D107480C38006820F04050216D84
:101A1000084304490C39086016B90020BDE8F0817C
:101A20000120FBE75844025870B504460D460026D5
:101A30008D48006800F00700A8420ED28A4800686E
:101A400020F007002843884908600846006800F035
:101A50000700A84201D0012070BD207800F00200EC
:101A6000022807D18148006820F00F00E168084390
:101A70007E490860207800F00100002851D07B48A2
:101A8000006820F47060A1680843784908606068C5
:101A9000022807D1754818380068C0F34040F8B9EB
:101AA0000120D9E76068032807D17048183800681A
:101AB000C0F34060A0B90120CEE76068012807D1DB
:101AC0006A4818380068C0F3002048B90120C3E70D
:101AD000664818380068C0F3800008B90120BBE7E9
:101AE00062480838006820F00700616808435F49D1
:101AF00008390860FEF79EFE06466068022811D18C
:101B000008E0FEF797FE801B41F28831884201D938
:101B10000320A1E755480838006800F03800102875
:101B2000EFD13AE06068032811D108E0FEF782FEA9
:101B3000801B41F28831884201D903208CE74B4851
:101B40000838006800F038001828EFD125E06068F8
:101B5000012811D108E0FEF76DFE801B41F28831AB
:101B6000884201D9032077E740480838006800F030
:101B700038000828EFD110E008E0FEF75BFE801B7C
:101B800041F28831884201D9032065E73748083897
:101B9000006800F038000028EFD13348006800F0FA
:101BA0000700A8420ED93048006820F007002843FB
:101BB0002D4908600846006800F00700A84201D0DF
:101BC000012049E7207800F00400042807D12748C5
:101BD000006820F0700021690843244908602078DB
:101BE00000F00800082809D12048001D006820F0F6
:101BF0007000616908431D49091D0860207800F0E4
:101C00001000102809D11948001D006820F4E06078
:101C1000A16908431549091D0860207800F02000DB
:101C2000202809D111480830006820F07000E169CF
:101C300008430E490831086000F066F80B4909684E
:101C400001F470614FF4807292FAA2F2B2FA82F259
:101C5000D140074A515CC840064908600F20FEF792
:101C6000FDFD0020F8E60000002000521844025854
:101C7000485200080000002010B5FEF7DBFE0949BD
:101C8000096801F00F01012292FAA2F2B2FA82F27F
:101C9000D140054A515CC8400449086008460068C4
:101CA00010BD0000184402584852000804000020EB
:101CB00010B5FFF7E1FF0749096801F07001102234
:101CC00092FAA2F2B2FA82F2D140034A515CC840C1
:101CD00010BD00001C4402584852000810B5FFF720
:101CE000CBFF0749096801F4E0614FF4807292FA72
:101CF000A2F2B2FA82F2D140024A515CC84010BD51
:101D00001C4402584852000870B5012500EE905A54
:101D10000022012100230024DFED861AB0EE610AC3
:101D2000DFED841AB0EE611A0020834D2D6805F0B6
:101D3000380535B1082D15D0102D15D0182D7CD1B2
:101D400014E07D4D103D2D68C5F3401545B17A4D29
:101D5000103D2D68C5F3C106784D25FA06F000E068
:101D60007648E5E07648E3E07648E1E0724D1835E4
:101D70002D6805F00302704D18352D68C5F3051167
:101D80006D4D1C352D6805F001036B4D24352D6814
:101D9000C5F3CC0515FB03F501EE905AF8EE611A78
:101DA000B0EE610A22B1012A4FD0022A7DD16BE048
:101DB000614D103D2D68C5F340152DB35E4D103DAE
:101DC0002D68C5F3C1065D4D25FA06F4B4FBF1F5A7
:101DD00001EE905AB8EE612ADFED5B1AC0EE212ABF
:101DE000554D20352D68C5F3080501EE905AF8EEE3
:101DF000611A72EEA11AF7EE002A71EEA21A62EED3
:101E0000211AB0EE611A1FE04C4DB5FBF1F501EE61
:101E1000905AB8EE612ADFED4C1AC0EE212A464DE9
:101E200020352D68C5F3080501EE905AF8EE611AC9
:101E300072EEA11AF7EE002A00E077E071EEA21A26
:101E400062EE211AB0EE611A5EE03D4DB5FBF1F590
:101E500001EE905AB8EE612ADFED3B1AC0EE212A5E
:101E6000354D20352D68C5F3080501EE905AF8EE82
:101E7000611A72EEA11AF7EE002A71EEA21A62EE52
:101E8000211AB0EE611A3FE02E4DB5FBF1F501EEDF
:101E9000905AB8EE612ADFED2C1AC0EE212A264DA9
:101EA00020352D68C5F3080500E00EE001EE905ADC
:101EB000F8EE611A72EEA11AF7EE002A71EEA21A7C
:101EC00062EE211AB0EE611A1EE01D4DB5FBF1F570
:101ED00001EE905AF8EE612ADFED1B1A80EE212AFE
:101EE000154D20352D68C5F3080501EE905AF8EE22
:101EF000611A72EE211AB7EE002A71EE821A62EEB2
:101F0000A11AB0EE611A00BF00BF0B4D20352D683D
:101F1000C5F346256D1C00EE905AF8EE601A81EE6E
:101F2000212AFCEEC21A11EE900A01E0044800BF1B
:101F300000BF70BD00000000104402580090D003A4
:101F400000093D0040787D010000004670B5044660
:101F50000025207800F00100002872D0F9480068C0
:101F600000F0380010280CD0F648006800F0380067
:101F7000182812D1F3481830006800F00300022836
:101F80000BD1F04810380068C0F3404000286DD0F5
:101F9000606800286AD1012070BD00BF6068B0F59C
:101FA000803F08D1E7481038006840F48030E549A8
:101FB000103908602EE0606868B9E248103800689F
:101FC00020F48030DF49103908600846006820F4AA
:101FD000802008601EE06068B0F5A02F0DD1D948C0
:101FE0001038006840F48020D6491039086008464F
:101FF000006840F4803008600CE0D2481038006877
:1020000020F48030CF49103908600846006820F479
:102010008020086000BF6068A0B1FEF70BFC054699
:1020200008E0FEF707FC401B41F28831884201D9E5
:102030000320B1E7C34810380068C0F340400028CF
:10204000EFD013E0FEF7F6FB054608E0FEF7F2FBE3
:10205000401B41F28831884201D903209CE7B948EE
:1020600010380068C0F340400028EFD1207800F01D
:102070000200022847D1B348006800F0380058B188
:10208000B048006800F0380018283ED1AD4818303C
:10209000006800F00300B8BBAA4810380068C0F31D
:1020A000800018B1E06808B9012075E7A54810382C
:1020B000006820F01900E1680843A249103908605F
:1020C000FEF7B8FB054606E0FEF7B4FB401B02280E
:1020D00001D9032060E79B4810380068C0F38000F6
:1020E0000028F1D097480C38006820F47C304FF479
:1020F0007C3292FAA2F2B2FA82F22169914008434C
:1021000090490C3908604AE0FFE7E06868B38D4801
:102110001038006820F01900E16808438949103937
:102120000860FEF787FB054606E0FEF783FB401BD1
:10213000022801D903202FE7824810380068C0F335
:1021400080000028F1D07F480C38006820F47C30F3
:102150004FF47C3292FAA2F2B2FA82F221699140F3
:10216000084378490C39086019E07648103800684F
:1021700020F00100734910390860FEF75BFB05464B
:1021800006E0FEF757FB401B022801D9032003E7B6
:102190006C4810380068C0F380000028F1D1207826
:1021A00000F01000102877D16648006800F0380071
:1021B00008280CD06348006800F03800182823D1A4
:1021C00060481830006800F0030001281CD15D4809
:1021D00010380068C0F3002020B1E069802801D0E9
:1021E0000120D9E657480C38006820F0F8404FF03D
:1021F000F84292FAA2F2B2FA82F2216A91400843BE
:1022000050490C39086047E0E06958B34D48103830
:10221000006840F080004B4910390860FEF70AFB67
:10222000054606E0FEF706FB401B022801D9032005
:10223000B2E6444810380068C0F300200028F1D00E
:1022400040480C38006820F0F8404FF0F84292FA0D
:10225000A2F2B2FA82F2216A9140084339490C395C
:10226000086019E037481038006820F080003549D0
:1022700010390860FEF7DEFA054606E0FEF7DAFAE6
:10228000401B022801D9032086E62E48103800683A
:10229000C0F300200028F1D1207800F008000828C1
:1022A00036D16069D0B127486430006840F0010041
:1022B000244964310860FEF7BDFA054606E0FEF7E2
:1022C000B9FA401B022801D9032065E61D48643095
:1022D0000068C0F340000028F1D019E019486430CC
:1022E000006820F00100174964310860FEF7A2FA87
:1022F000054606E0FEF79EFA401B022801D903209E
:102300004AE6104864300068C0F340000028F1D16C
:10231000207800F02000202834D1A069D8B10948E5
:102320001038006840F48050064910390860FEF704
:1023300081FA054608E0FEF77DFA401B022803D922
:10234000032029E610440258AF480068C0F340302B
:102350000028F0D016E0AC48006820F48050AA496C
:102360000860FEF767FA054606E0FEF763FA401BD1
:10237000022801D903200FE6A3480068C0F34030CB
:102380000028F2D1207800F0040004287DD19F4875
:10239000006840F480709D490860FEF74BFA0546DE
:1023A00006E0FEF747FA401B642801D90320F3E555
:1023B0009648006800F480700028F2D000BFA06842
:1023C000012808D190487030006840F001008E4923
:1023D000703108602DE0A06868B98B4870300068E3
:1023E00020F001008849703108600846006820F03C
:1023F000040008601DE0A06805280DD182487030F7
:10240000006840F0040080497031086008460068A8
:1024100040F0010008600CE07B487030006820F05C
:1024200001007949703108600846006820F0040016
:10243000086000BFA068A0B1FEF7FCF9054608E0FF
:10244000FEF7F8F9401B41F28831884201D9032098
:10245000A2E56D4870300068C0F340000028EFD05E
:1024600013E0FEF7E7F9054608E0FEF7E3F9401B45
:1024700041F28831884201D903208DE562487030ED
:102480000068C0F340000028EFD1606A00287CD0CB
:102490005D481030006800F03800182876D0606A77
:1024A000022874D15848006820F0807056490860AE
:1024B000FEF7C0F9054606E0FEF7BCF9401B02280E
:1024C00001D9032068E550480068C0F34060002847
:1024D000F2D100BFD4E90A1041EA00104A4928317C
:1024E000096840F2F33291430843474928310860B4
:1024F000208E401EC0F30800616B491E4FF47E42DF
:1025000002EA41210843218F491ED20102EA01411A
:1025100008433C21095D491E120202EA0161084399
:1025200039493031086000BF081D00684FF6F87166
:1025300088434FF6F87292FAA2F2B2FA82F2A16CD4
:10254000914008433049343108602F482C300068EE
:1025500020F00C00216C08432B492C310860084600
:10256000006820F00200616C084327492C310860A4
:102570000846006840F4803008600846006840F46F
:10258000003008600846006802E03BE038E01FE0E9
:1025900040F4802008600846006840F001000860B0
:1025A0001948006840F0807017490860FEF742F94A
:1025B000054606E0FEF73EF9401B022801D903203C
:1025C000EAE411480068C0F340600028F2D019E046
:1025D0000D48006820F080700B490860FEF72AF96A
:1025E000054606E0FEF726F9401B022801D9032024
:1025F000D2E405480068C0F340600028F2D101E051
:102600000120C9E40020C7E40044025800480258F1
:1026100070B504460E4615460CB9012070BD94F8FD
:10262000450028B9002084F84400204600F024F832
:1026300004F108012068FDF75DFF3146A2682068BB
:10264000FDF798FF2946E36AD4E90102FDF72EFF62
:10265000A168206850F8210040F00100A2682168BC
:1026600041F822000348006840F00040014908603A
:102670000020D3E700400052704770B5044625465D
:10268000681EB0F1807F01D301200FE0681E4FF07B
:10269000E02148610F214FF0FF3001F023FF0020BF
:1026A0004FF0E021886107200861002070BD10B55F
:1026B00004460CB9012010BD94F83D0028B9002053
:1026C00084F83C00204600F00CF8022084F83D001D
:1026D000211D206800F0B6FF012084F83D00002095
:1026E000E9E770470146022081F83D00086800884C
:1026F00040F001000A681080012081F83D000020B0
:10270000704710B504460CB9012010BDA06900B196
:1027100000E000BF94F8790028B9002084F8780020
:10272000204600F02AF8242084F879002068006808
:1027300020F0010021680860204601F099F8012886
:1027400000D1E2E7606B10B1204600F0E1FF2068A5
:10275000406820F49040216848602068806820F03C
:102760002A00216888602068006840F00100216824
:102770000860204601F041F8C7E7704700B59BB0FC
:102780004C2108A8FDF740FE1C2101A8FDF73CFEE6
:1027900018480890184809900520019002200290DE
:1027A00003900120049002200590069000200790DD
:1027B0000A9000210B910C9120210D9100210E9186
:1027C0000F9110914FF480511191002112911391AA
:1027D000149115911691179101AA01A908A8FFF764
:1027E00017FF20B14FF4927104A0FDF75BFE1BB000
:1027F00000BD000000400052044100522E2E5C2E0D
:102800002E5C557365725C6273705C7372635C629C
:1028100073705F666D635F696F2E630000B587B08C
:1028200000BF3E48006840F008003C490860084688
:10283000006800F00800019000BF00BF00BF08461C
:10284000006840F0100008600846006800F01000C2
:10285000019000BF00BF00BF0846006840F0400084
:1028600008600846006800F04000019000BF00BF0B
:1028700000BF0846006840F0800008600846006815
:1028800000F08000019000BF00BF00BF0846006854
:1028900040F4807008600846006800F48070019081
:1028A00000BF00BF00BF1D480C38006840F48050D6
:1028B0001A490C3908600846006800F480500190FD
:1028C00000BF00BF02200390012004900320059068
:1028D0000C2006904CF2B370029002A91048FDF74C
:1028E00083FE4FF68070029002A90E48FDF77CFE31
:1028F0000320029002A90C48FDF776FE4FF47F40BA
:10290000029002A90948FDF76FFE40F2CF600290E5
:1029100002A90748FDF768FE07B000BDE044025871
:10292000000C02580010025800180258001C0258EF
:1029300000200258014604480068084008B1012000
:1029400070470020FCE700003400002029B9084A45
:1029500012688243064B1A6004E0054A126802437B
:10296000034B1A60024A1268024B1A60704700005B
:10297000340000200010006010B53249096801F0F1
:10298000004149B12F49096841F000412D4A1160C9
:102990008169891C816110BD2A49083909682A4A60
:1029A00011622849091F097882F824102549C91E97
:1029B0000978916223490C310968D1622149891E45
:1029C000098811861F49096851631E49091D096854
:1029D00091631C4910310968D1631CA200210BE0EE
:1029E000535C254C238500BF234BDB6903F0400378
:1029F000002BF9D04B1CD9B22929F1D300211F4A51
:102A0000116000BF1D4909680029FBD00E4A01680A
:102A100011604168516081689160C168D16001694D
:102A200011614169516181699161C169D16100217F
:102A3000124A116000BF114909680029FBD000BF8C
:102A4000A9E700002CED00E0781600200D0A456E85
:102A500074657220486172644661756C745F486188
:102A60006E646C65722C2053797374656D204861B7
:102A70006C742E0D0A00000000100140740000204C
:102A800000B5B5B00120019000201F9001A8FEF70D
:102A90002FFA00BF6548006840F0010063490860F4
:102AA0000846006800F00100009000BF00BF00BFB2
:102AB0000846006840F0010008600846006800F021
:102AC0000100009000BF00BF00BF584810300068F0
:102AD00040F010005549103108600846006800F0C9
:102AE0001000009000BF00BF4FF400703090022033
:102AF000319001203290032033900720349030A988
:102B00004B48FDF771FD4FF4806030900720349002
:102B100030A94748FDF768FD012200212520FDF777
:102B200038FF2520FDF725FF0C2300224FF4E1316B
:102B3000404802F089F93F48006A40F040003D49B2
:102B400008620846008B40F00800088308460068C9
:102B500040F02000086000BF3448006840F00200E8
:102B6000324908600846006800F00200009000BF8B
:102B700000BF00BF0846006840F002000860084639
:102B8000006800F00200009000BF00BF00BF2748AF
:102B90000830006840F48020244908310860084665
:102BA000006800F48020009000BF00BF4FF48060F8
:102BB0003090022031900120329003203390072082
:102BC000349030A91C48FDF70FFD4FF400603090A1
:102BD0000720349030A91848FDF706FD0322002194
:102BE0002720FDF7D6FE2720FDF7C3FE0C23002289
:102BF0004FF41651114802F027F9104820300068B0
:102C000040F040000D49203108600C481830008821
:102C100040F008000949183108800848006840F071
:102C200020000649086035B000BD0000E0440258AD
:102C30000000025800100140000402580048004003
:102C40001FB5FDF75FFE01208DF800004FF010501A
:102C5000019012208DF8080003208DF80B00012050
:102C60008DF80F008DF80E0000208DF80D008DF806
:102C7000010001208DF80A0000208DF809008DF870
:102C80000C006846FDF710FE01208DF800004FF0A3
:102C9000C04001900F208DF8080003208DF80B0034
:102CA00001208DF80F0000208DF80E008DF80D002A
:102CB00001208DF8010000208DF80A008DF8090030
:102CC0008DF80C006846FDF7EFFD0420FDF730FE9F
:102CD0001FBD00BFFEE7704710B505A001F0EAFB7D
:102CE00006A001F0E7FB14A001F0E4FB10BD00001A
:102CF000B2D9D7F7CCE1CABE3A0D0A00312E20C6B0
:102D0000F4B6AFD2BBB8F6D7D4B6AFD6D8D7B0C822
:102D1000EDBCFEB6A8CAB1C6F7A3ACC3BF31303014
:102D20006D73B7ADD7AAD2BBB4CE4C454431BACD42
:102D30004C4544320D0A0000322E20D4D9C6F4B6D8
:102D4000AFD2BBB8F6D7D4B6AFD6D8D7B0C8EDBCE3
:102D5000FEB6A8CAB1C6F7A3ACC3BF3530306D7399
:102D6000B7ADD7AAD2BBB4CE4C454433BACD4C454F
:102D700044340D0A000000002DE9F04123A001F0C9
:102D800099FB32480468001D0568001D066830483C
:102D900000683049B0FBF1F739462FA001F08AFBFB
:102DA00023462A46314638A001F084FB3BA001F0BF
:102DB00081FB16A001F07EFB39A13CA001F07AFB5B
:102DC0003FA140A001F076FB43A146A001F072FBB9
:102DD00049A001F06FFB54A001F06CFB54A001F07E
:102DE00069FB59A001F066FB5CA001F063FB62A0E7
:102DF00001F060FB67A001F05DFB6EA001F05AFBE3
:102E000002A001F057FBBDE8F08100002A2A2A2A1F
:102E10002A2A2A2A2A2A2A2A2A2A2A2A2A2A2A2A12
:102E20002A2A2A2A2A2A2A2A2A2A2A2A2A2A2A2A02
:102E30002A2A2A2A2A2A2A2A2A2A2A2A2A2A2A2AF2
:102E40002A2A2A2A2A2A2A2A2A0A0D0000E8F11FF9
:102E50000000002040420F000D0A435055203A2048
:102E600053544D333248373433584948362C204276
:102E700047413234302C20D6F7C6B53A2025644D70
:102E8000487A0D0A00000000554944203D202530B5
:102E90003858202530385820253038580A0D000081
:102EA00056372DC5DCC2EDB5C60000002A20C0FD96
:102EB000B3CCC3FBB3C62020203A2025730D0A00F3
:102EC000312E30002A20C0FDB3CCB0E6B1BE2020A8
:102ED000203A2025730D0A00323031382D31322D41
:102EE000313200002A20B7A2B2BCC8D5C6DA2020F1
:102EF000203A2025730D0A002A2048414CBFE2B039
:102F0000E6B1BE20203A2056312E332E30202853F1
:102F1000544D3332483778782048414C2044726908
:102F2000766572290D0A00002A200D0A00000000B3
:102F30002A205151202020203A203132393537348F
:102F400034363330200D0A002A20CDFACDFA202065
:102F50003A2061726D666C790D0A00002A20456D79
:102F600061696C203A2061726D666C794071712ED6
:102F7000636F6D200D0A00002A20CEA2D0C5B9AB28
:102F8000D6DABAC53A2061726D666C795F636F6D8F
:102F9000200D0A002A20CCD4B1A6B5EA3A206172ED
:102FA0006D666C792E74616F62616F2E636F6D0D4B
:102FB0000A0000002A20436F7079726967687420E4
:102FC0007777772E61726D666C792E636F6D20B0A6
:102FD000B2B8BBC0B3B5E7D7D30D0A002DE9F041B5
:102FE00004460E4600274848006800F00300032806
:102FF00002D10120BDE8F08143482838006820F064
:103000008060414928390860FDF714FC054606E058
:10301000FDF710FC401B022801D90320EAE73A48DB
:1030200028380068C0F3C0600028F1D100BF3648DE
:10303000006820F47C30216840EA013032490860A1
:10304000A088401EC0F30800A168491E4FF47E42CC
:1030500002EA41210843A189491ED20102EA014145
:103060000843217C491E120202EA016108432649F5
:103070001031086000BF2448001D006820F0C00027
:10308000616908432049091D08600846006820F06E
:103090002000A16908431C49091D08602EB9084693
:1030A000006840F40020086012E0012E08D11648A4
:1030B000001D006840F480101349091D086007E0F6
:1030C0001148001D006840F400100F49091D0860F8
:1030D0000D482838006840F080600B4928390860A6
:1030E000FDF7A8FB054606E0FDF7A4FB401B022800
:1030F00001D903207EE7044828380068C0F3C06087
:103100000028F1D0384675E7284402582DE9F041EF
:1031100004460E4600274848006800F003000328D4
:1031200002D10120BDE8F08143482838006820F032
:103130008050414928390860FDF77CFB054606E0D0
:10314000FDF778FB401B022801D90320EAE73A4843
:1031500028380068C0F340700028F1D100BF36481D
:10316000006820F07C70218840EA015032490860F4
:10317000A088401EC0F30800A168491E4FF47E429B
:1031800002EA41210843A189491ED20102EA014114
:103190000843217C491E120202EA016108432649C4
:1031A0001831086000BF2448001D006820F440600A
:1031B000616908432049091D08600846006820F439
:1031C0000070A16908431C49091D08602EB9084612
:1031D000006840F48000086012E0012E08D1164813
:1031E000001D006840F400001349091D086007E055
:1031F0001148001D006840F080700F49091D0860EB
:103200000D482838006840F080500B492839086084
:10321000FDF710FB054606E0FDF70CFB401B0228FE
:1032200001D903207EE7044828380068C0F34070C5
:103230000028F1D0384675E72844025800B587B019
:1032400000BF0D48006840F002000B4908600846C6
:10325000006800F00200019000BF00BF0120039051
:1032600000200490032005900420029002A9034846
:10327000FDF7BAF907B000BDE04402580004025857
:103280007047000004200149088070471804025864
:1032900004200149088070471A04025810B5002321
:1032A000234C236000BF00BF00BFBFF34F8F00BFA0
:1032B00000BF00BF231F1868C0F34E3100BFC0F32A
:1032C000C90200BF43F6E07303EA41134FF04044E4
:1032D00004EA82742343174C236000BF00BF131E0F
:1032E000A2F10102EED10B1EA1F10101E7D100BF55
:1032F00000BF00BFBFF34F8F00BF00BF00BF0C4B2C
:10330000703B1B6843F48033094C703C236000BF62
:1033100000BF00BFBFF34F8F00BF00BF00BF00BFA3
:1033200000BF00BFBFF36F8F00BF00BF00BF10BD65
:1033300084ED00E060EF00E000BF00BF00BFBFF31E
:103340004F8F00BF00BF00BF00BF00BF00BFBFF373
:103350006F8F00BF00BF00BF00201449086000BF8E
:1033600000BF00BFBFF34F8F00BF00BF00BF00BF53
:1033700000BF00BFBFF36F8F00BF00BF00BF0C488E
:10338000006840F400300A49086000BF00BF00BF79
:10339000BFF34F8F00BF00BF00BF00BF00BF00BF23
:1033A000BFF36F8F00BF00BF00BF704750EF00E05A
:1033B00014ED00E010B500BF502072B680F3118804
:1033C000BFF34F8FBFF36F8F62B600BF01F080FE77
:1033D00018B14FF080500449086000BF002080F30E
:1033E000118800BF10BD000004ED00E010B59CB0D6
:1033F00000243A48006820F004003849086000BF03
:103400000020009035480C30006840F440403349BB
:103410000C3108600846006800F44040009000BF8E
:1034200000BF00BF2D480C30006800F40050B0F51C
:10343000005FF7D101200190000402900020049069
:10344000089002200A9002210B9105210C91A021E5
:103450000D9102210E91109104210F9100211291E2
:103460000821119101A8FEF771FD04461CB18C21C1
:103470001BA0FDF717F83F201490032015900020A3
:1034800016900820179040201890199000011A906B
:1034900040201B90042114A8FEF7C6FA04461CB174
:1034A000A7210FA0FCF7FEFF1348006840F0800042
:1034B0001149086000BF1048F430006840F0020075
:1034C0000D49F43108600846006800F002000090E1
:1034D00000BF00BFFDF77EF81CB010BD0C480258BD
:1034E0002E2E5C2E2E5C557365725C6273705C626E
:1034F00073702E63000000000044025820480068EA
:1035000040F470001E4908601E48006840F0010049
:103510001C49086000201B491031086019480068E8
:1035200019490840174908600020164918310860F9
:10353000091D0860091D0860124928310860091D2D
:103540000860091D0860091D0860091D0860091D43
:103550000860091D0860091D08600A48006820F419
:103560008020084908600020064960310860012079
:1035700006490860C00602498039086070470000AB
:1035800088ED00E0004402587FEDF6EA0881005122
:1035900070B5002500264FF08044206900F0020538
:1035A000E06800F002065DB156B14FF6FD70206193
:1035B000E0684FF6FD710840E0601E4800688047F3
:1035C000206900F00405E06800F004065DB156B122
:1035D0004FF6FB702061E0684FF6FB710840E06039
:1035E000154800688047206900F00805E06800F091
:1035F00008065DB156B14FF6F7702061E0684FF6EE
:10360000F7710840E0600D4800688047206900F0CD
:103610001005E06800F010065DB156B14FF6EF708E
:103620002061E0684FF6EF710840E06004480068F0
:10363000804770BD14000020180000201C000020EE
:103640002000002010B500220288294B98420ED09D
:10365000B0F1804F0BD0274B984208D0264B9842B0
:1036600005D0264B984202D0254B984203D122F038
:1036700070024B681A431E4B984217D0B0F1804F2E
:1036800014D01C4B984211D01B4B98420ED01B4BB0
:1036900098420BD01A4B984208D01A4B984205D04A
:1036A000194B984202D0194B984203D122F4407230
:1036B000CB681A4322F080034C6943EA040202807B
:1036C0008B68C3620B880385094B98420BD00C4B67
:1036D000984208D00B4B984205D00B4B984202D031
:1036E0000A4B984201D10B8A03860123436110BD26
:1036F000000001400004004000080040000C0040B1
:1037000000040140004001400044014000480140E5
:1037100090F8341001F0010139B10168496821F4D1
:103720000031826B11430268516090F8341001F04F
:10373000020139B10168496821F48031C26B11433B
:103740000268516090F8341001F0040139B1016849
:10375000496821F48021026C11430268516090F89D
:10376000341001F0080139B10168496821F40041C1
:10377000426C11430268516090F8341001F010015E
:1037800039B10168896821F48051826C1143026863
:10379000916090F8341001F0200139B10168896816
:1037A00021F40051C26C11430268916090F834100A
:1037B00001F0400199B10168496821F48011026D5E
:1037C000114302685160016DB1F5801F07D1016896
:1037D000496821F4C001426D11430268516090F8BC
:1037E000341001F0800139B10168496821F40021E9
:1037F000826D114302685160704738B50446002558
:103800000020E067FDF716F805462068006800F024
:10381000080008280CD16FF07E402B4600224FF4A0
:1038200000110090204600F0F5FC08B1032038BDDF
:103830002068006800F0040004280CD16FF07E407E
:103840002B4600224FF480010090204600F0E2FC5D
:1038500008B10320EBE7202084F8790084F87A008F
:1038600000BF002084F8780000BF00BFDFE7000041
:103870002DE9F04F89B0044600254FF08008A94695
:10388000AA4600200890FA492068884201D1012008
:1038900000E0002000B100E000BFA06AB0F1005FCE
:1038A00000D100BF2169A068084361690843E1694C
:1038B00040EA0105A06A054320680068ED49084018
:1038C0002843216808602068406820F44050E1687F
:1038D000084321684860A569E5492068884201D10C
:1038E000012000E0002008B9206A0543A06AB0F179
:1038F000005F03D1D4E90B010843054320688068C9
:10390000DD4908402843216888602068C06A20F0AB
:103910000F00616A08432168C86200BFD749206868
:10392000884224D1D648006800F03800182814D006
:1039300005DC48B108280AD0102817D10AE0202851
:103940000ED0282812D10EE04FF001080EE04FF003
:1039500004080BE04FF0400808E04FF0080805E0CD
:103960004FF0100802E04FF0200800BF17E1C549F2
:10397000206888421DD1C248006800F00700062870
:1039800016D2DFE800F00306090C0F124FF0000812
:103990000EE04FF004080BE04FF0400808E04FF055
:1039A000080805E04FF0100802E04FF0200800BFC3
:1039B000F5E0B549206888421DD1B148006800F0A3
:1039C0000700062816D2DFE800F00306090C0F12E4
:1039D0004FF000080EE04FF004080BE04FF04008F5
:1039E00008E04FF0080805E04FF0100802E04FF043
:1039F000200800BFD3E0A549206888421DD1A04817
:103A0000006800F00700062816D2DFE800F0030681
:103A1000090C0F124FF000080EE04FF004080BE005
:103A20004FF0400808E04FF0080805E04FF010089C
:103A300002E04FF0200800BFB1E0954920688842BD
:103A40001DD18F48006800F00700062816D2DFE875
:103A500000F00306090C0F124FF000080EE04FF0C3
:103A600004080BE04FF0400808E04FF0080805E0BC
:103A70004FF0100802E04FF0200800BF8FE08549AA
:103A80002068884224D17E48006800F03800182859
:103A900014D005DC48B108280AD0102817D10AE054
:103AA00020280ED0282812D10EE04FF001080EE099
:103AB0004FF004080BE04FF0400808E04FF0080812
:103AC00005E04FF0100802E04FF0200800BF66E06C
:103AD0007149206888421DD16948006800F00700DC
:103AE000062816D2DFE800F00306090C0F124FF08B
:103AF00000080EE04FF004080BE04FF0400808E02B
:103B00004FF0080805E04FF0100802E04FF02008E1
:103B100000BF44E06149206888421DD158480068D0
:103B200000F00700062816D2DFE800F00306090CB3
:103B30000F124FF000080EE04FF004080BE04FF0BA
:103B4000400808E04FF0080805E04FF0100802E0D8
:103B50004FF0200800BF22E04549206888421ED16E
:103B60004748001D006800F00700062816D2DFE86D
:103B700000F00306090C0F124FF002080EE04FF0A0
:103B800004080BE04FF0400808E04FF0080805E09B
:103B90004FF0100802E04FF0200800BF00BF00BF48
:103BA00033492068884201D1012000E0002000282C
:103BB0005DD00025B8F1100F33D009DCB8F1020F49
:103BC00010D0B8F1040F11D0B8F1080F2ED117E0C2
:103BD000B8F1200F27D0B8F1400F0CD0B8F1800F0A
:103BE00024D124E0FCF742FF054623E005A8FCF7BA
:103BF00053FF069D1EE002A8FDF764F8039D19E03F
:103C00001F4854380068C0F3401040B11C48543875
:103C10000068C0F3C101224820FA01F500E0204D00
:103C200008E0204D06E04FF4004503E000BF01200E
:103C3000089000BF00BF002D0AD0606800EB400074
:103C4000A84203D860680003A84202D2012008906D
:103C5000D4E2B8F1100F7CD026DCB8F1020F2DD0E1
:103C6000B8F1040F52D0B8F1080F73D19EE03FE1D4
:103C7000000C0058F369FFCFFFF4FF110010014062
:103C8000544402580044004000480040004C0040AA
:103C9000005000400014014000780040007C0040CB
:103CA0000090D00300093D00B8F1200F7DD0B8F19D
:103CB000400F54D0B8F1800FD7D109E1FCF7D6FE00
:103CC00000270646FB49606A31F810C062463B4651
:103CD00030463946FCF760FB4FF4807600220346FD
:103CE000A3FB060701FB067103FB02136168490889
:103CF000064671185A41CDE9001266683246002323
:103D000008460199FCF748FB0546E4E005A8FCF7E6
:103D1000C3FEDDF818C0E749606A31F810B05A46B2
:103D2000002360461946FCF737FB4FF4807C0022E5
:103D3000A0FB0C3B01FB0CB100FB021061684908C1
:103D40005E1840EB0201D4F804C0624600233046FE
:103D500001E079E0BBE0FCF71FFB0546BBE002A8F1
:103D6000FCF7B0FFDDF80CC0D249606A31F810B042
:103D70005A46002360461946FCF70EFB4FF4807C40
:103D80000022A0FB0C3B01FB0CB100FB02106168A0
:103D900049085E1840EB0201D4F804C062460023D3
:103DA0003046FCF7F9FA054695E06EE0C248006837
:103DB000C0F3401038B3C0480068C0F3C101BF4829
:103DC00020FA01FCBB49606A31F810B05A46002362
:103DD00060461946FCF7E0FA4FF4807C0022A0FB15
:103DE0000C3B01FB0CB100FB0210616849085E1836
:103DF00040EB0201D4F804C0624600233046FCF7D1
:103E0000CBFA05461FE0AB49606A31F810C0624644
:103E10000023AA481946FCF7BFFA4FF4807C002221
:103E2000A0FB0C3B01FB0CB100FB021061684908D0
:103E30005E1840EB0201D4F804C06246002330460D
:103E4000FCF7AAFA054646E09A49606A31F810C0C4
:103E5000624600239A481946FCF79EFA4FF4807C8C
:103E60000022A0FB0C3B01FB0CB100FB02106168BF
:103E700049085E1840EB0201D4F804C062460023F2
:103E80003046FCF789FA054625E08A49606A31F830
:103E900010C0624600234FF400401946FCF77CFA3C
:103EA0004FF4807C0022A0FB0C3B01FB0CB100FB1B
:103EB0000210616849085E1840EB0201D4F804C0A2
:103EC000624600233046FCF767FA054603E000BF70
:103ED0000120089000BF00BFB5F5407F05D3B5F5C0
:103EE000801F02D22068C56088E10120089085E12A
:103EF000E069B0F5004F7CD1B8F1100F7AD00CDC3E
:103F0000B8F1000F13D0B8F1010F21D0B8F1040FB0
:103F10002FD0B8F1080F6ED151E0B8F1200F6BD05F
:103F2000B8F1400F38D0B8F1800F64D197E0FDF7B9
:103F3000BFFE604A616A32F81110B0FBF1F0400038
:103F4000616800EB5100B0FBF1F01FFA80FA89E0E4
:103F5000FDF7C4FE574A616A32F81110B0FBF1F068
:103F60004000616800EB5100B0FBF1F01FFA80FAED
:103F700078E005A8FCF790FD06994E4A606A32F891
:103F80001000B1FBF0F04000616800EB5100B0FBA5
:103F9000F1F01FFA80FA65E002A8FCF793FE03999E
:103FA000444A606A32F81000B1FBF0F040006168EA
:103FB00000EB5100B0FBF1F01FFA80FA52E03E48EE
:103FC0000068C0F34010C0B13B480068C0F3C101B5
:103FD0003A48C840374A616A32F81110B0FBF1F034
:103FE0004000616800EB5100B0FBF1F01FFA80FA6D
:103FF00012E044E011E031E01FE02E49606A31F840
:1040000010002E49B1FBF0F04000616800EB510058
:10401000B0FBF1F01FFA80FA24E02649606A31F81B
:1040200010002749B1FBF0F04000616800EB51003F
:10403000B0FBF1F01FFA80FA14E01E49606A31F813
:1040400010004FF40041B1FBF0F04000616800EB5C
:104050005100B0FBF1F01FFA80FA03E000BF01202D
:10406000089000BF00BF4FF6F0700AEA0009CAF3DB
:10407000420049EA00092068C0F80C90BEE0B8F19F
:10408000100F7CD00CDCB8F1000F1BD0B8F1010F81
:1040900029D0B8F1040F37D0B8F1080F70D159E02A
:1040A000B8F1200F6DD0B8F1400F40D0B8F1800FBB
:1040B00066D19FE058520008004402580090D00397
:1040C00000093D00FDF7F4FD4E4A616A32F8111017
:1040D000B0FBF1F0616800EB5100B0FBF1F080B291
:1040E0002168C86089E0FDF7F9FD464A616A32F847
:1040F0001110B0FBF1F0616800EB5100B0FBF1F082
:1041000080B22168C86078E005A8FCF7C5FC069974
:104110003C4A606A32F81000B1FBF0F0616800EBD5
:104120005100B0FBF1F080B22168C86065E002A8E0
:10413000FCF7C8FD0399334A606A32F81000B1FBFE
:10414000F0F0616800EB5100B0FBF1F080B2216843
:10415000C86052E02C480068C0F34010C0B12A4843
:104160000068C0F3C1012948C840264A616A32F894
:104170001110B0FBF1F0616800EB510002E017E0B4
:1041800037E025E0B0FBF1F080B22168C8600EE0B6
:104190001C49606A31F810001C49B1FBF0F06168FD
:1041A00000EB5100B0FBF1F080B22168C86024E060
:1041B0001449606A31F810001549B1FBF0F06168EC
:1041C00000EB5100B0FBF1F080B22168C86014E050
:1041D0000C49606A31F810004FF40041B1FBF0F077
:1041E000616800EB5100B0FBF1F080B22168C8605B
:1041F00003E000BF0120089000BF00BF089809B08D
:10420000BDE8F08F58520008004402580090D003D7
:1042100000093D002DE9F04104460D461746984639
:10422000069E21E0701CF8B12EB1FCF703FBA0EB59
:104230000800B04218D92068006820F4D0702168C6
:1042400008602068806820F00100216888602020D4
:1042500084F8790084F87A0000BF002084F87800A0
:1042600000BF0320BDE8F0812068C0692840A84253
:1042700001D1012000E00020B842D3D00020F1E7B6
:1042800010B5024800F00CF810BD00005C010020E1
:1042900010B5024800F004F810BD000088090020A5
:1042A0002DE9F04104462068C56920680668206849
:1042B000D0F8088005F02000D8B12068808CC7B203
:1042C000E18AA0684754E08A401C80B2E082E1891C
:1042D000884201DB0020E082608BE189884202DABB
:1042E000608B401C6083606A10B13846616A884701
:1042F00000BF05F0800028B306F0800010B3A08A4C
:1043000060B92068006820F080002168086020689B
:10431000006840F040002168086013E0012084F844
:104320002800618A6068405C21680885608A401CBA
:1043300080B26082A189884201DB00206082A08A6D
:10434000401EA08205F0400018B306F0400000B304
:10435000A08A68B92068006820F0400021680860E1
:10436000206A08B1206A8047002084F8280010E005
:10437000618A6068405C21680885608A401C80B260
:104380006082A189884201DB00206082A08A401EF1
:10439000A0822068006A40F001002168086220685D
:1043A000006A40F00200216808622068006A40F05C
:1043B0000400216808622068006A40F00800216853
:1043C00008622068006A40F01000216808622068D6
:1043D000006A40F04000216808622068006A40F4EA
:1043E0008070216808622068006A40F400702168CB
:1043F00008622068006A40F4003021680862206882
:10440000006A40F48010216808622068006A40F069
:10441000200021680862BDE8F081000019481A49AF
:1044200008601A4848601A4888604FF480608881A4
:10443000C881002008824882C88208834883888215
:10444000C8610862486281F8280012481249086071
:1044500012484860124888604FF480608881C881A3
:10446000002008824882C8820883488388820D48D9
:10447000C8610D4808620D484862002081F8280094
:1044800070470000001001405C01002088010020FE
:10449000880500200048004088090020B409002059
:1044A000B40D0020853200089132000881320008E6
:1044B00000BFFEE70FB4054B10B503A9044A0298EC
:1044C00000F036F810BC5DF814FB00004D4F0008FA
:1044D0007800002002480068C0F302207047000006
:1044E0000CED00E010B5002804DB0A07130E054AA6
:1044F000135406E00A07140E034A00F00F031B1FB3
:10450000D45410BD00E400E018ED00E002E008C85B
:10451000121F08C1002AFAD170477047002001E03D
:1045200001C1121F002AFBD1704780F31088704729
:104530002DE9FF4F8DB00F460546002606E02528E1
:104540000BD0DDE90F1290476D1C761C28780028EF
:10455000F5D111B03046BDE8F08F0024A246A14647
:104560000122E94900E0044315F8013F203B02FA2B
:1045700003F00842F7D128782A2810D06FF02F02D4
:104580002878A0F13001092914D80AEB8A0102EB3E
:10459000410144F0020400EB010A6D1CF0E701CF79
:1045A0005FEA000A03D544F40054CAF1000A44F05B
:1045B00002046D1C28782E2817D115F8010F44F03D
:1045C00004042A280ED06FF02F022878A0F13001C1
:1045D00009290AD809EB890102EB410100EB010925
:1045E0006D1CF2E757F8049B6D1C28786C280FD0DF
:1045F00006DC4C2817D068280DD06A2814D104E0B6
:10460000742810D07A280FD10DE044F400140AE089
:1046100044F4801401E044F440146978814202D1EA
:1046200004F580146D1C6D1C28786E281ED00CDCDF
:10463000632830D004DC00288BD0582811D19FE0AB
:10464000642867D069280CD164E073282DD004DC7D
:104650006F2872D0702804D194E075286ED0782825
:104660006DD0DDE90F129047761C4BE1C4F3025088
:10467000022806D0032809D0042801CF09D00660FB
:1046800040E101CFF117C0E900613BE101CF0680B5
:1046900038E1067036E117F8040B8DF800000020B1
:1046A0008DF80100EB46012003E057F804BB4FF002
:1046B000FF3061074FF0000102D40DE008F1010165
:1046C000884649450FDA8045F8DB1BF808100029B9
:1046D000F4D108E008F1010188468142FADB1BF8B9
:1046E00008100029F6D1DDE90F23AAEB0800814666
:1046F000214600F031F9304400EB080604E0DDE922
:104700000F121BF8010B9047B8F10108F7D22146B0
:104710004846F2E00A21C4F302524FF0000B089120
:10472000022A04D001CFC117032A09D00AE0FF1DD5
:1047300027F00707F7E8020108E02CE01EE01FE081
:1047400000B2C117042A01D140B2C117021E71F193
:10475000000206DA0023D0EB030063EB01012D22F7
:1047600002E0220504D52B228DF82420012203E04B
:10477000E20701D02022F7E7904653E00A210BE040
:10478000102109E010214FF0000B44F004044FF019
:104790000809089103E008214FF0000B0891C4F3C9
:1047A0000252022A04D001CF0021032A06D006E0DB
:1047B000FF1D27F00707F7E8020103E080B2042A93
:1047C00000D1C0B24FF0000822072BD52A78702AFA
:1047D00007D0DDF820C08CF0100C5CEA0B0C05D083
:1047E0000EE040228DF82420012208E050EA010367
:1047F00006D030238DF824308DF8252002229046F3
:10480000089B83F0080353EA0B030BD150EA010223
:1048100001D1620706D530228DF824204FF001081F
:10482000A9F101092A78582A04D038A20B9208AAC3
:104830000A920BE03AA2F9E75B46089AFBF7ACFD57
:104840000B9B9B5C0A9A521E0A92137050EA01025B
:10485000F2D10A98ADEB000000F1200B600702D501
:1048600024F4803401E04FF00109D94502DDA9EBC1
:104870000B0000E0002000EB0B0141440890AAEB84
:10488000010AE00306D4DDE90F232146504600F07B
:1048900063F806444FF0000908E009A911F809007F
:1048A000DDE90F12904709F10109761CC145F4DBDF
:1048B000E0030CD5DDE90F232146504600F04CF80B
:1048C000064404E0DDE90F1230209047761C089979
:1048D000481E08900029F5DC08E00A980A9900783B
:1048E000491C0A91DDE90F129047761CBBF10001CB
:1048F000ABF1010BF1DC21465046DDE90F2300F05E
:1049000019F806446D1C21E60928010030313233C4
:1049100034353637383961626364656600000000FB
:1049200030313233343536373839414243444546E5
:10493000000000002DE9F041044600251E46174600
:10494000880404D405E039462020B0476D1C641E5D
:10495000F9D52846BDE8F0812DE9F041044600254F
:104960001E469046C80301D5302700E02027880462
:1049700004D505E041463846B0476D1C641EF9D5A4
:104980002846BDE8F08100000146042901DB002033
:10499000704701EB4100084A02EB80004078012893
:1049A00008D1002001EB4102034B03EB820250705F
:1049B0000120EDE70020EBE72C01002010B50446B4
:1049C00004B910BD012C00D102240120FFF7ADFD78
:1049D00009480460002009490870FFF7A6FD06E0B9
:1049E00000F00EF805480078012800D100E0F7E754
:1049F00000BF00BFE5E700002400002028000020E1
:104A0000704710B5FEF71CF9FBF745FDFBF718FFE3
:104A1000FEF7ECFC00F09AF800F048F900F09AF983
:104A200000F004F800F034F910BD000010B5FDF7F7
:104A3000F5FEFDF7A3FE40F6147003490860084632
:104A400000680249086010BD3400002000100060BA
:104A5000F0B591B0402101A8FBF7D6FC4FF080449F
:104A600000BF2948006840F0010027490860084657
:104A7000006800F00100009000BF00BF234884429E
:104A80000BD02348844208D02248844205D02248D3
:104A9000844202D02148844203D12148006846085C
:104AA00002E01F48006846081E48B6FBF0F0401EB2
:104AB00087B2B4F1804F02D01B48844202D14FF03C
:104AC000FF3501E04FF6FF75019402970495002130
:104AD0000591039106918021079101A8FDF7E7FD5B
:104AE00020B14FF40C7111A0FBF7DCFC0222002175
:104AF0001C20FBF74EFF1C20FBF73BFF01A8FDF736
:104B0000F1FD11B0F0BD0000E84402580000014082
:104B100000040140004001400044014000480140C1
:104B20000000002040420F00000C00402E2E5C2EA2
:104B30002E5C557365725C6273705C7372635C6249
:104B400073705F74696D65722E63000010B500F0BC
:104B500063F800F001F810BD10B586B000BF2C4816
:104B6000006840F002002A4908600846006800F02A
:104B70000200009000BF00BF00BF0846006840F080
:104B8000040008600846006800F00400009000BFC0
:104B900000BF00BF0846006840F0400008600846BB
:104BA000006800F04000009000BF00BF00BF084652
:104BB000006840F0800008600846006800F080004F
:104BC000009000BF00BF00BF0846006840F480703E
:104BD00008600846006800F48070009000BF00BFC5
:104BE0000020029003900320049000240CE0094868
:104BF00000EBC40080880190064951F8340001A9F7
:104C0000FBF7F2FC601CC4B2082CF0DB06B010BD50
:104C1000E0440258B852000810B500201A498872C2
:104C2000C8720873002418E06420184901EB0411CD
:104C300008810220154901EB041108710020134975
:104C400001EB04118872114901EB0411C8720F497C
:104C500001EB04110873601CC4B20A2CE4DB0622C9
:104C60006421032000F0DEF806226421042000F015
:104C7000D9F806226421052000F0D4F80622642128
:104C8000104600F0CFF810BD1C0100207C00002071
:104C900010B5012000F066F8022000F063F8032050
:104CA00000F060F8042000F05DF810BD70B500243D
:104CB00016E0002004EB4401214A02EB8101486028
:104CC00004EB440102EB8101886004EB440102EB38
:104CD0008101487004EB440102F82100601CC4B259
:104CE000042CE6DB174800684FF47A72B0FBF2F14F
:104CF000481EB0F1807F00D31BE0481E4FF0E02239
:104D0000506150170F22002804DB13071D0E0E4BB5
:104D10001D5406E013071E0E0C4B00F00F052D1F4F
:104D20005E5500BF00204FF0E02290610720106127
:104D300000BF012006490870FFF78AFE70BD000021
:104D40002C0100200000002000E400E018ED00E04D
:104D50003000002010B5FFF761FBFDF791FEFEF774
:104D60006DFA10BD10B50446012C04D101210002DA
:104D7000FDF7ECFD13E0022C04D101214802FDF700
:104D8000E5FD0CE0032C04D101218802FDF7DEFDD6
:104D900005E0042C03D10121C802FDF7D7FD10BDA9
:104DA00010B50446012C04D100210002FDF7CEFD10
:104DB00014E0022C04D100212002FDF7C7FD0DE014
:104DC000032C05D100214FF48060FDF7BFFD05E005
:104DD000042C03D100216002FDF7B8FD10BD70B5B1
:104DE0000446012C01D105020DE0022C01D125025F
:104DF00009E0032C02D14FF4806504E0042C01D1BA
:104E0000650200E070BD2846FDF794FD20B1002149
:104E10002846FDF79BFD03E001212846FDF796FD9E
:104E200000BFEFE710B5074B03EB00131981054BEB
:104E300003EB0013DA720023024C04EB001423731B
:104E400010BD00007C000020F0B5A1B004460D4666
:104E500017461E460194029500210391049105977F
:104E600007910696089109910A910B910C910D9169
:104E700000200E9001A8FDF744FC20B140F22A3139
:104E800002A0FBF70FFB21B0F0BD00002E2E5C2E20
:104E90002E5C557365725C6273705C7372635C62E6
:104EA00073705F756172745F6669666F2E63000070
:104EB00070B504460D46042C06DB124A12A11AA056
:104EC000FFF7F8FA00BFFEE70120FFF72EFB04EB27
:104ED00044001D4901EB8000456004EB440001EBF8
:104EE00080008560002004EB4401174A02EB810139
:104EF0004870012004EB440102F821000020FFF774
:104F000014FB70BD375300082E2E5C2E2E5C55739B
:104F100065725C6273705C7372635C6273705F7401
:104F2000696D65722E6300004572726F723A206679
:104F3000696C652025732C2066756E6374696F6ECD
:104F400020257328290D0A002C010020044B188508
:104F500000BF034AD26902F04002002AF9D070472C
:104F600000100140FFF74DFDFDF706FFFDF7B4FE11
:104F70000120FFF715FF6420FFF720FD0120FFF758
:104F8000F1FE6420FFF71AFD64210020FFF790FF77
:104F90004FF4FA710120FFF78BFF15E0FFF730FDAA
:104FA0000020FFF7F1FC10B10120FFF718FF0120EE
:104FB000FFF7EAFC40B10220FFF711FF0320FFF7E3
:104FC0000EFF0420FFF70BFFE8E700000948006828
:104FD000006808B9012000E0002020B14FF0FF3048
:104FE0000549086005E003480068C0680068024998
:104FF000086070473C0000206800002001460A69F4
:10500000D1E901309860D1E90103586050688842C5
:1050100001D188685060002008611068401E10604F
:105020001068704742684A6093688B609368596063
:105030009160086103685B1C036070471F4800684B
:1050400018B101201E49086036E000201C490860A4
:105050001C4801680EE061B900BF502072B680F3B1
:105060001188BFF34F8FBFF36F8F62B600BF00BFD1
:10507000FEE7491E01EB8100134A52F8200008B9EF
:10508000012000E000200028E5D101EB81020E4B59
:1050900003EB820042685268426000F108024368F4
:1050A000934202D14268526842604268D268074B1C
:1050B0001A600448016000BF7047000070000020C3
:1050C0005C00002050000020B411002038000020B7
:1050D0002DE9F0414FF000084448006800287DD1D8
:1050E00043480068451C4248056025BB41480068AC
:1050F000006808B9012000E0002060B900BF50201E
:1051000072B680F31188BFF34F8FBFF36F8F62B613
:1051100000BF00BFFEE737480768374800683549D9
:1051200008603548076035480068401C334908600E
:10513000FFF74CFF00BF3248006885423BD300BFF9
:105140002C480068006808B9012000E0002020B168
:105150004FF0FF302A4908602CE026480068C068FC
:10516000C4686668B54202D22548066022E0201D68
:10517000FFF744FFA06A18B104F11800FFF73EFFE3
:105180002049E06A0968884202D91E49E06A08603D
:10519000E16A01EB81011C4A02EB8100211DFFF74E
:1051A00041FF1A49E06A0968C96A8842C8D34FF0CA
:1051B0000108C5E700BF15480068C06A00EB800021
:1051C000114951F82000012801D94FF00108104879
:1051D000006808B14FF0010805E0FFE70D480068DE
:1051E000401C0C4908604046BDE8F081700000207A
:1051F0004C0000203C000020400000206000002007
:105200006800002050000020B41100203800002069
:105210005C0000205800002001000200040006008D
:1052200008000A000C00100020004000800000016F
:10523000010002000400060008000A000C00100033
:105240002000400080000001000000000102030473
:105250000102030406070809010002000400060019
:1052600008000A000C00100020004000800000012F
:10527000010002000400060008000A000C001000F3
:105280002000400080000001010002000400060030
:1052900008000A000C0010002000400080000001FF
:1052A000010002000400060008000A000C001000C3
:1052B0002000400080000001002002580001000092
:1052C0000008025800200000001C025810000000D6
:1052D00000180258040000000004025801000000F9
:1052E0000018025808000000001802588000000052
:1052F000002002580008000001000200040006001F
:1053000008000A000C00100020004000800000018E
:10531000010002000400060008000A000C00100052
:1053200020004000800000016273705F537461725E
:105330007454696D6572006273705F537461727446
:105340004175746F54696D6572006273705F537458
:105350006F7054696D65720078530008000000207A
:105360007C0000000C450008F45300087C0000207D
:105370003C2600001C4500080090D0030090D0039C
:10538000000000001000000001000000000000000C
:10539000000000000000000000000000000000000D
:1053A00000000000000000000000000000000000FD
:1053B00000000000000000000000000000000000ED
:1053C00000000000000000000000000000000000DD
:1053D00000000000000000000000000000000000CD
:1053E00000000000000000000000000000000000BD
:0453F00000000000B9
:040000050800029954
:00000001FF
