:020000040800F2
:10000000F8210020B10200084F300008BD030008AD
:100010004B300008CF0300088D49000800000000A5
:100020000000000000000000000000002D34000867
:10003000DF030008000000005130000831340008E0
:10004000CB020008CB020008CB020008CB0200085C
:10005000CB020008CB020008CB020008CB0200084C
:10006000CB020008CB020008CB020008CB0200083C
:10007000CB020008CB020008CB020008CB0200082C
:10008000CB020008CB020008CB020008CB0200081C
:10009000CB020008CB020008CB020008CB0200080C
:1000A000CB020008CB020008CB020008CB020008FC
:1000B000C5360008CB020008CB020008CB020008BE
:1000C000CB020008CB020008CB020008CB020008DC
:1000D000CB0200085D470008CB0200086D4700080E
:1000E000CB020008CB02000800000000CB02000891
:1000F000CB020008CB020008CB020008CB020008AC
:10010000CB020008CB020008CB020008CB0200089B
:10011000CB020008CB02000879370008CB020008A8
:10012000CB020008CB020008CB020008CB0200087B
:10013000CB020008CB020008CB020008CB0200086B
:1001400000000000000000000000000000000000AF
:10015000CB020008CB020008CB020008CB0200084B
:10016000CB020008CB020008CB020008CB0200083B
:10017000CB020008CB020008CB0200080000000000
:10018000CB020008CB020008CB020008CB0200081B
:10019000CB020008CB020008CB020008CB0200080B
:1001A000CB020008CB020008CB020008CB020008FB
:1001B000CB020008CB020008CB020008CB020008EB
:1001C000CB020008CB020008CB020008CB020008DB
:1001D000CB020008CB020008CB020008CB020008CB
:1001E000CB020008CB020008CB020008CB020008BB
:1001F000CB020008CB020008CB020008CB020008AB
:10020000CB020008CB020008CB020008CB0200089A
:1002100075360008CB020008CB020008CB020008AC
:10022000CB020008CB020008CB020008000000004F
:10023000CB020008CB02000800000000CB0200083F
:10024000CB020008CB020008CB020008CB0200085A
:10025000CB020008CB020008CB020008CB0200084A
:10026000CB020008CB020008CB020008CB0200083A
:10027000CB020008CB020008CB02000800000000FF
:10028000CB02000800000000CB02000800000000C4
:1002900000000000CB020008DFF810D000F07CF86E
:1002A00000480047494F0008AFF30080F8210020C4
:1002B0000648804706480047FEE7FEE7FEE7FEE700
:1002C000FEE7FEE7FEE7FEE7FEE7FEE7E1350008B2
:1002D000990200082DE9F05F0546002092469B46F2
:1002E00088460646814640241BE02846414647464C
:1002F000224600F041F853465A46C01A914110D3A5
:1003000011461846224600F028F82D1A67EB01081E
:100310004F4622460120002100F01FF817EB00098C
:100320004E41201EA4F10104DFDC484631462A4636
:100330004346BDE8F09FD2B201E000F8012B491E10
:10034000FBD270470022F6E710B513460A46044672
:100350001946FFF7F0FF204610BD202A04DB203AA3
:1003600000FA02F1002070479140C2F1200320FA08
:1003700003F3194390407047202A04DB203A21FA06
:1003800002F00021704721FA02F3D040C2F12002AE
:100390009140084319467047064C074D06E0E06857
:1003A00040F0010394E8070098471034AC42F6D3BC
:1003B000FFF776FF00510008205100081EF0040FDF
:1003C0000CBFEFF30880EFF3098002F03BBC00BFE5
:1003D000FEE710B502F0ECFF02F09CFF10BD704785
:1003E00001B9704700BFFEE770B504461D46002303
:1003F000B5F5804F13D154F822300C480340D1E9B1
:10040000000640EA06108E6840EA06208E8940EA1F
:1004100006408E693043034344F8223003E06FF016
:10042000704044F82200002070BD00000000F0CFB2
:1004300010B502460023086852F820301B480340DC
:10044000D1E901042043CC6820430C6920434C6966
:1004500020438C692043CC6920430C6A20434C6ABA
:1004600020438C6A2043CC6A20430C6B20438C6B66
:1004700020434C6B204303438868082801D143F094
:100480004003086842F82030086BB0F5801F05D1A2
:10049000086818B110680C6B20431060086818B128
:1004A00010684C6B20431060002010BD8004C0FF1A
:1004B00030B5034614460022601C53F8202002F099
:1004C0004042D1E9000540EA05108D6840EA052068
:1004D0008D8940EA0545088A401E45EA0055087D99
:1004E000801E45EA00608D6928430243601C43F882
:1004F0002020186800F4801038B1586820F4700289
:10050000088A401E42EA00525A60002030BD0000B6
:100510000348006840F0010001490860704700008E
:1005200020040058F8B502460B460021002600249E
:100530000020824D00BFFCE0012707FA01F61F688A
:1005400007EA0604B4427CD15F68022F02D05F68DC
:10055000122F1AD14FEAD10C02F1200757F82C00C4
:100560004F074FEAD76C0F2707FA0CF7B8434FEA4B
:10057000417C4FEADC6C1F6907FA0CF738434FEAFD
:10058000D10C02F1200747F82C0010684FEA410C0B
:10059000032707FA0CF7B8431F7907F003074FEA60
:1005A000410C07FA0CF7384310605F68012F08D040
:1005B0005F68022F05D05F68112F02D05F68122F8D
:1005C00017D190684FEA410C032707FA0CF7B8439C
:1005D0004FEA410CDF6807FA0CF738439060506827
:1005E00001278F40B8431F79C7F300178F40384366
:1005F0005060D0684FEA410C032707FA0CF7B84364
:100600004FEA410C9F6807FA0CF73843D0605F68E7
:1006100007F08057B7F1805F95D100BF484F3F6822
:1006200047F00207DFF818C1CCF8007067463F6852
:1006300007F00207009700BF00BF424F4FEA910C3E
:1006400000E075E057F82C008F074FEA177C0F2762
:1006500007FA0CF7B8433C4FBA4201D100272DE00E
:100660003A4FBA4201D1012728E0394FBA4201D1AD
:10067000022723E0374FBA4201D103271EE0364F4D
:10068000BA4201D1042719E0344FBA4201D10527FB
:1006900014E0334FBA4201D106270FE0314FBA427E
:1006A00001D107270AE0304FBA4201D1082705E0FF
:1006B0002E4FBA4201D1092700E00A274FEA817C78
:1006C0004FEA1C7C07FA0CF738431E4F4FEA910C97
:1006D00047F82C002868A0435F6807F48037B7F517
:1006E000803F00D1204328606868A0435F6807F41A
:1006F0000037B7F5003F00D1204368604FF0B047A6
:100700003868A0435F6807F48017B7F5801F00D1F1
:1007100020434FF0B04738607868A0435F6807F423
:100720000017B7F5001F00D120434FF0B0477860A5
:10073000491C1029FFF400AFF8BD000080000058EC
:10074000F4440258080400580000025800040258FB
:1007500000080258000C02580010025800140258F9
:1007600000180258001C02580020025800240258A9
:10077000014800687047000024000020034800681A
:1007800003490978084401490860704724000020A3
:100790002C00002010B5032000F0E2F80F2000F03C
:1007A00007F808B1012010BD00F08CF80020FAE72E
:1007B00070B504460E4800784FF47A71B1FBF0F042
:1007C0000C490968B1FBF0F5284601F000FF08B1BB
:1007D000012070BD102C07D200222146501E00F0CF
:1007E00082F80548046001E00120F2E70020F0E70C
:1007F0002C00002030000020280000204178154AFD
:1008000011600178F9B1121D41681160017B09077F
:10081000C27A41EA0261827A41EAC241427B41EAFC
:100820008241827B41EA4241C27B41EA0241427AF3
:1008300041EA0221027A41EA420102781143054A63
:100840000832116005E00021024A121D1160121DDC
:100850001160704798ED00E000BF00BF00BFBFF31C
:100860005F8F00BF00BF00BF0548006820F48030E4
:100870000349086000200249703108607047000099
:1008800024ED00E040F001010D4A11600C4970397F
:10089000096841F480310A4A703A116000BF00BF14
:1008A00000BFBFF34F8F00BF00BF00BF00BF00BF3E
:1008B00000BFBFF36F8F00BF00BF00BF70470000D5
:1008C00094ED00E0704701460846002809DB00F07F
:1008D0001F0301229A4043099B0003F1E023C3F860
:1008E000002100BF70472DE9F05F80460D46164697
:1008F00004F05EF8074639462A46334601F0070001
:10090000C0F1070ABAF1040F02D94FF0040A01E05E
:10091000C0F1070AD14600F1040ABAF1070F02D26A
:100920004FF0000A01E0A0F1030AD4464FF0010A9B
:100930000AFA09FAAAF1010A0AEA020A0AFA0CFA00
:100940004FF0010B0BFA0CFBABF1010B0BEA030BA5
:100950004AEA0B042146404604F032F8BDE8F09F15
:1009600000BF00F00702064B19684FF6FF0319405D
:10097000044B0B4343EA0221014B196000BF70474F
:100980000CED00E00000FA0510B501F067F9094927
:10099000096801F470614FF4807292FAA2F2B2FA1F
:1009A00082F2D140044A515CC840044908600846BC
:1009B000006810BD18440258F050000830000020B4
:1009C00010B501F003F90749096801F07001102220
:1009D00092FAA2F2B2FA82F2D140034A515CC840C4
:1009E00010BD000020440258F050000870B50146C8
:1009F00000220120002300249FED811AB0EE410A5D
:100A00009FED7F1AF0EE410A7E4D2D6805F003023E
:100A10007C4D2D68C5F305307A4D2D1D2D6805F0F0
:100A20001003784D14352D68C5F3CC0515FB03F57F
:100A300001EE105AB8EE411AB0EE410A22B1012A75
:100A40004DD0022A7DD169E06E4D283D2D68C5F359
:100A500040152DB36B4D283D2D68C5F3C1066A4D79
:100A600025FA06F4B4FBF0F501EE105AF8EE411A3F
:100A70009FED661A80EE012A624D10352D68C5F390
:100A8000080501EE105AB8EE411A32EE011AB7EE1F
:100A9000002A31EE021A21EE811AF0EE410A1DE021
:100AA000594DB5FBF0F501EE105AF8EE411A9FEDE5
:100AB000571A80EE012A534D10352D68C5F30805ED
:100AC00001EE105AB8EE411A32EE011AB7EE002AC2
:100AD00031EE021A21EE811AF0EE410A5EE04C4D31
:100AE000B5FBF0F501EE105AB8EE412A9FED471A1A
:100AF000C0EE011A434D10352D68C5F3080501EE0F
:100B0000105AB8EE411A31EE811AF7EE001A31EEA2
:100B1000211A22EE011AF0EE410A3FE03D4DB5FBED
:100B2000F0F501EE105AF8EE411A9FED381A80EEFA
:100B3000012A344D10352D68C5F3080501EE105A11
:100B400000E00CE0B8EE411A32EE011AB7EE002ACE
:100B500031EE021A21EE811AF0EE410A1EE02C4D10
:100B6000B5FBF0F501EE105AB8EE412A9FED271AB9
:100B7000C0EE011A234D10352D68C5F3080501EEAE
:100B8000105AB8EE411A31EE811AF7EE001A31EE22
:100B9000211A22EE011AF0EE410A00BF00BF194DE2
:100BA00010352D68C5F346256D1C01EE105AB8EEC0
:100BB000411AC0EE811ABCEEE11A81ED001A114D06
:100BC00010352D68C5F306456D1C01EE105AB8EEC0
:100BD000411AC0EE811ABCEEE11A81ED011A094DED
:100BE00010352D68C5F306656D1C01EE105AB8EE80
:100BF000411AC0EE811ABCEEE11A81ED021A70BDF5
:100C000000000000284402580090D0030000004675
:100C100000093D0040787D0170B5014600220120A9
:100C2000002300249FED811AB0EE410A9FED7F1A48
:100C3000F0EE410A7E4D2D6805F003027C4D2D68D3
:100C4000C5F305507A4D2D1D2D6805F48073784D40
:100C50001C352D68C5F3CC0515FB03F501EE105AC4
:100C6000B8EE411AB0EE410A22B1012A4DD0022A53
:100C70007DD169E06E4D283D2D68C5F340152DB33B
:100C80006B4D283D2D68C5F3C1066A4D25FA06F463
:100C9000B4FBF0F501EE105AF8EE411A9FED661A1A
:100CA00080EE012A624D18352D68C5F3080501EE66
:100CB000105AB8EE411A32EE011AB7EE002A31EEA0
:100CC000021A21EE811AF0EE410A1DE0594DB5FBE2
:100CD000F0F501EE105AF8EE411A9FED571A80EE2A
:100CE000012A534D18352D68C5F3080501EE105A39
:100CF000B8EE411A32EE011AB7EE002A31EE021AAE
:100D000021EE811AF0EE410A5EE04C4DB5FBF0F5A4
:100D100001EE105AB8EE412A9FED471AC0EE011AB3
:100D2000434D18352D68C5F3080501EE105AB8EE8D
:100D3000411A31EE811AF7EE001A31EE211A22EE35
:100D4000011AF0EE410A3FE03D4DB5FBF0F501EE32
:100D5000105AF8EE411A9FED381A80EE012A344DF0
:100D600018352D68C5F3080501EE105A00E00CE0B7
:100D7000B8EE411A32EE011AB7EE002A31EE021A2D
:100D800021EE811AF0EE410A1EE02C4DB5FBF0F584
:100D900001EE105AB8EE412A9FED271AC0EE011A53
:100DA000234D18352D68C5F3080501EE105AB8EE2D
:100DB000411A31EE811AF7EE001A31EE211A22EEB5
:100DC000011AF0EE410A00BF00BF194D18352D6819
:100DD000C5F346256D1C01EE105AB8EE411AC0EE5F
:100DE000811ABCEEE11A81ED001A114D18352D68FB
:100DF000C5F306456D1C01EE105AB8EE411AC0EE5F
:100E0000811ABCEEE11A81ED011A094D18352D68E1
:100E1000C5F306656D1C01EE105AB8EE411AC0EE1E
:100E2000811ABCEEE11A81ED021A70BD00000000CB
:100E3000284402580090D0030000004600093D00FD
:100E400040787D012DE9F041044600250026206808
:100E500000F00060B0F1006F30D1606E48B1B0F5C5
:100E6000801F0DD0B0F5001F10D0B0F5401F15D178
:100E700013E0F948006840F40030F74908600FE0DB
:100E80000221201D02F0E6F8054609E0022104F1E6
:100E9000240002F077F9054602E001E0012500BFD9
:100EA00000BF55B9EC482430006820F44010616E52
:100EB0000843E9492431086000E02E43208800F40B
:100EC0008070B0F5807F2DD1606D05281AD2DFE8E3
:100ED00000F0030A10171800DF48006840F40030E3
:100EE000DD49086010E00021201D02F0B3F805463E
:100EF0000AE0002104F1240002F044F9054603E071
:100F000002E001E0012500BF00BF55B9D2482430FE
:100F1000006820F00700616D0843CF492431086064
:100F200000E02E43208800F40070B0F5007F33D13C
:100F3000A06D802817D003DC40B140281CD10CE004
:100F4000C02817D0B0F5807F16D114E0C2480068E1
:100F500040F40030C049086010E00021201D02F07C
:100F600079F805460AE0002104F1240002F00AF9AC
:100F7000054603E002E001E0012500BF00BF55B9CE
:100F8000B5482430006820F4E070A16D0843B249F0
:100F90002431086000E02E43208800F48060B0F522
:100FA000806F38D1D4F8A400B0F5800F19D004DCDC
:100FB00050B1B0F5001F1DD10DE0B0F5C00F17D036
:100FC000B0F5000F16D114E0A348006840F40030DB
:100FD000A149086010E00021201D02F03BF8054601
:100FE0000AE0002104F1240002F0CCF8054603E0F9
:100FF00002E001E0012500BF00BF5DB996482C303A
:10100000006820F46000D4F8A410084392492C3101
:10101000086000E02E43208800F40060B0F5006F07
:1010200038D1D4F8A800B0F1007F19D004DC50B159
:10103000B0F1807F1DD10DE0B0F1407F17D0B0F14D
:10104000806F16D114E08448006840F40030824973
:10105000086010E00021201D01F0FCFF05460AE0B9
:10106000002104F1240002F08DF8054603E002E0BF
:1010700001E0012500BF00BF5DB977482C30006852
:1010800020F0E060D4F8A810084373492C310860C0
:1010900000E02E43206800F00070B0F1007F27D1FF
:1010A000A06CA0B1102804D0202809D030280FD17E
:1010B0000CE06948006840F400306749086009E0C6
:1010C0000221201D01F0C6FF054603E002E001E019
:1010D000012500BF00BF55B95F482030006820F0EF
:1010E0003000A16C08435C492031086000E02E43C9
:1010F000208800F48050B0F5805F36D1E06DB0F507
:10110000005F19D004DC50B1B0F5805F1DD10DE057
:10111000B0F5405F17D0B0F5804F16D114E04E48BF
:10112000006840F400304C49086010E00021201DA8
:1011300001F090FF05460AE0002104F1240002F0CE
:1011400021F8054603E002E001E0012500BF00BFF1
:1011500055B941482430006820F4E040E16D08436F
:101160003D492431086000E02E43208800F40050FF
:10117000B0F5005F34D1206EB0F5403F1DD007DCE4
:1011800068B1B0F5803F0BD0B0F5003F18D10DE04D
:10119000B0F5802F12D0B0F5A02F11D10FE011E0E3
:1011A0000121201D01F056FF05460BE0012104F14D
:1011B000240001F0E7FF054604E003E002E001E05F
:1011C000012500BF00BF55B923482430006820F432
:1011D000E020216E084320492431086000E02E43BE
:1011E000208800F48040B0F5804F38D1D4F8AC00AE
:1011F000B0F1405F1DD007DC68B1B0F1805F0BD06B
:10120000B0F1005F18D10DE0B0F1804F12D0B0F115
:10121000A04F11D10FE011E00121201D01F01AFFB4
:1012200005460BE0012104F1240001F0ABFF054667
:1012300004E003E002E001E0012500BF00BF6DB95A
:1012400005482C30006820F0E040D4F8AC1008438A
:1012500001492C31086002E02C4402582E432088BA
:1012600000F40040B0F5004F26D1E06E98B1B0F127
:10127000805F03D0B0F1005F0ED106E0FA4800684D
:1012800040F40030F849086008E00121201D01F019
:10129000E1FE054602E001E0012500BF00BF55B9AF
:1012A000F1482430006820F04050E16E0843EE49D8
:1012B0002431086000E02E43206800F08070B0F117
:1012C000807F27D1606CA0B1012804D0022809D00A
:1012D00003280FD10CE0E448006840F40030E249F4
:1012E000086009E00221201D01F0B4FE054603E07C
:1012F00002E001E0012500BF00BF55B9DA48203007
:10130000006820F00300616C0843D7492031086071
:1013100000E02E43206800F48000B0F5800F7DD1FE
:10132000D248006840F48070D0490860FFF720FA86
:10133000074606E0FFF71CFAC01B642801D9032505
:1013400005E0CA48006800F480700028F2D000BFB1
:101350008DBBC5484430006800F44070B4F8B0104C
:1013600001F44071884214D0BF484430006820F432
:101370004078BD484430006840F48030BA49443178
:1013800008600846006820F4803008600846C0F80D
:101390000080D4F8B000B0F5807F15D1FFF7E8F9F0
:1013A000074609E0FFF7E4F9C01B41F288318842A3
:1013B00002D9032507E038E0AB4844300068C0F3A9
:1013C00040000028EED000BF4DBB00BFB4F8B00015
:1013D00000F44070B0F5407F0ED1A3481C3800687F
:1013E00020F47C51A24AD4F8B000104041EA101019
:1013F0009D491C39086007E09B481C38006820F4B0
:101400007C5099491C390860974844300068B4F80A
:10141000B010C1F30B010843934901E006E002E07C
:101420004431086002E02E4300E02E43207800F0B3
:10143000010068B3A06F182819D005DC48B108284E
:1014400008D0102816D10BE0202811D0282811D15F
:101450000FE011E00121201D01F0FCFD05460BE02D
:10146000012104F1240001F08DFE054604E003E0B3
:1014700002E001E0012500BF00BF55B97A482830DD
:10148000006820F03800A16F0843774928310860D0
:1014900000E02E43207800F00200022828D1606F7F
:1014A000062815D2DFE800F003040A11121311E038
:1014B0000121201D01F0CEFD05460BE0012104F1C4
:1014C000240001F05FFE054604E003E002E001E0D5
:1014D000012500BF00BF55B963482830006820F0DF
:1014E0000700616F084360492831086000E02E431F
:1014F000207800F0040004282AD1D4F890000628AF
:1015000015D2DFE800F003040A11121311E00121E3
:10151000201D01F09FFD05460BE0012104F1240090
:1015200001F030FE054604E003E002E001E00125A1
:1015300000BF00BF5DB94C482C30006820F00700A8
:10154000D4F89010084348492C31086000E02E433D
:10155000207800F02000202836D1D4F88C00B0F19B
:10156000405F1DD007DC68B1B0F1805F0BD0B0F1F7
:10157000005F18D10DE0B0F1804F12D0B0F1A04F54
:1015800011D10FE011E00021201D01F063FD05469F
:101590000BE0022104F1240001F0F4FD054604E013
:1015A00003E002E001E0012500BF00BF5DB92E4865
:1015B0002830006820F0E040D4F88C1008432A4915
:1015C0002831086000E02E43207800F040004028D9
:1015D00036D1D4F89800B0F5406F1DD007DC68B163
:1015E000B0F5806F0BD0B0F5006F18D10DE0B0F5FD
:1015F000805F12D0B0F5A05F11D10FE011E00021A3
:10160000201D01F027FD05460BE0022104F1240016
:1016100001F0B8FD054604E003E002E001E0012529
:1016200000BF00BF5DB910482C30006820F4E050C6
:10163000D4F8981008430C492C31086000E02E4380
:10164000207800F0800080283BD1D4F89C00B0F5D1
:10165000C04F24D00EDCA0B1B0F5005F12D0B0F5C1
:10166000804F1FD114E000002C440258004802585B
:10167000FFFCFF0FB0F5004F12D0B0F5204F11D195
:101680000FE011E00021201D01F0E4FC05460BE015
:10169000022104F1240001F075FD054604E003E099
:1016A00002E001E0012500BF00BF4DB9B24800686B
:1016B00020F46040D4F89C100843AF49086000E073
:1016C0002E43207800F00800082816D1D4F88000B6
:1016D000B0F5805F06D1022104F1240001F052FD33
:1016E00006430AE0A448001F006820F44050D4F8E4
:1016F00080100843A049091F0860207800F01000FE
:10170000102814D1D4F89400B0F5807F06D10221BE
:1017100004F1240001F036FD064308E09648006815
:1017200020F44070D4F8941008439349086020686E
:1017300000F40020B0F5002F26D1D4F8A00030B17D
:10174000B0F5803F09D0B0F5003F0ED10CE000218C
:10175000201D01F07FFC054609E0022104F1240070
:1017600001F010FD054602E001E0012500BF00BFC9
:101770004DB98148006820F44030D4F8A0100843E7
:101780007D49086000E02E43206800F48020B0F519
:10179000802F2DD1D4F88400B0F5801F06D0B0F58D
:1017A000001F0CD0B0F5401F11D10FE072482C384B
:1017B000006840F4003070492C39086009E00121CC
:1017C00004F1240001F0DEFC054602E001E0012501
:1017D00000BF00BF5DB96848001F006820F44010DA
:1017E000D4F8841008436449091F086000E02E43C0
:1017F000206800F48030B0F5803F24D1E06C18B14F
:10180000B0F5803F0FD108E05B482C38006840F409
:10181000003059492C39086007E00221201D01F0F1
:1018200019FC054601E0012500BF00BF55B952482B
:101830000C38006820F48030E16C08434E490C39C4
:10184000086000E02E43206800F00050B0F1005F17
:1018500005D1022104F1240001F094FC0643206824
:1018600000F40030B0F5003F27D1E06FA0B1B0F533
:10187000807F06D0B0F5007F0CD0B0F5407F0CD152
:1018800009E03D482C38006840F400303A492C39D2
:10189000086004E003E002E001E0012500BF00BFB2
:1018A00055B93548001F006820F44070E16F0843C7
:1018B0003149091F086000E02E43206800F48010C1
:1018C000B0F5801F09D12C480838006820F000408E
:1018D000216F0843284908390860206800F08050CB
:1018E000B0F1805F0AD124484838006820F4804075
:1018F000D4F8B4100843204948390860206800F43F
:101900000010B0F5001F09D11B480838006820F00E
:101910008070A16E0843184908390860206800F0FB
:101920008040B0F1804F11D100BF134848380068A3
:1019300020F4004010494839086008460068D4F88F
:10194000B81008430C494839086000BF206800F00F
:101950000040B0F1004F09D107480C38006820F072
:101960004050216D084304490C39086016B9002025
:10197000BDE8F0810120FBE75844025870B50446E9
:101980000D4600268D48006800F00700A8420ED2E0
:101990008A48006820F00700284388490860084604
:1019A000006800F00700A84201D0012070BD207837
:1019B00000F00200022807D18148006820F00F00E3
:1019C000E16808437E490860207800F001000028A3
:1019D00051D07B48006820F47060A16808437849C2
:1019E00008606068022807D1754818380068C0F39D
:1019F0004040F8B90120D9E76068032807D1704852
:101A000018380068C0F34060A0B90120CEE76068D4
:101A1000012807D16A4818380068C0F3002048B987
:101A20000120C3E7664818380068C0F3800008B991
:101A30000120BBE762480838006820F007006168B1
:101A400008435F4908390860FEF792FE0646606861
:101A5000022811D108E0FEF78BFE801B41F288318D
:101A6000884201D90320A1E755480838006800F0F2
:101A700038001028EFD13AE06068032811D108E05F
:101A8000FEF776FE801B41F28831884201D903209F
:101A90008CE74B480838006800F038001828EFD170
:101AA00025E06068012811D108E0FEF761FE801B87
:101AB00041F28831884201D9032077E7404808384D
:101AC000006800F038000828EFD110E008E0FEF7C9
:101AD0004FFE801B41F28831884201D9032065E71F
:101AE00037480838006800F038000028EFD1334844
:101AF000006800F00700A8420ED93048006820F0C6
:101B0000070028432D4908600846006800F00700D8
:101B1000A84201D0012049E7207800F00400042801
:101B200007D12748006820F0700021690843244944
:101B30000860207800F00800082809D12048001D1E
:101B4000006820F07000616908431D49091D0860A4
:101B5000207800F01000102809D11948001D0068F5
:101B600020F4E060A16908431549091D0860207848
:101B700000F02000202809D111480830006820F02A
:101B80007000E16908430E490831086000F066F80A
:101B90000B49096801F470614FF4807292FAA2F265
:101BA000B2FA82F2D140074A515CC8400649086047
:101BB0000F20FEF7FDFD0020F8E600000020005297
:101BC00018440258F05000083000002010B5FEF70D
:101BD000DBFE0949096801F00F01012292FAA2F225
:101BE000B2FA82F2D140054A515CC840044908600B
:101BF0000846006810BD000018440258F050000864
:101C00003400002010B5FFF7E1FF0749096801F033
:101C10007001102292FAA2F2B2FA82F2D140034A83
:101C2000515CC84010BD00001C440258F050000830
:101C300010B5FFF7CBFF0749096801F4E0614FF4E5
:101C4000807292FAA2F2B2FA82F2D140024A515C58
:101C5000C84010BD1C440258F050000870B5012562
:101C600000EE905A0022012100230024DFED861AA5
:101C7000B0EE610ADFED841AB0EE611A0020834DE8
:101C80002D6805F0380535B1082D15D0102D15D06B
:101C9000182D7CD114E07D4D103D2D68C5F3401505
:101CA00045B17A4D103D2D68C5F3C106784D25FA32
:101CB00006F000E07648E5E07648E3E07648E1E0CB
:101CC000724D18352D6805F00302704D18352D68DA
:101CD000C5F305116D4D1C352D6805F001036B4DE5
:101CE00024352D68C5F3CC0515FB03F501EE905A9C
:101CF000F8EE611AB0EE610A22B1012A4FD0022A31
:101D00007DD16BE0614D103D2D68C5F340152DB3BD
:101D10005E4D103D2D68C5F3C1065D4D25FA06F4F4
:101D2000B4FBF1F501EE905AB8EE612ADFED5B1AD3
:101D3000C0EE212A554D20352D68C5F3080501EE6A
:101D4000905AF8EE611A72EEA11AF7EE002A71EEBF
:101D5000A21A62EE211AB0EE611A1FE04C4DB5FBDB
:101D6000F1F501EE905AB8EE612ADFED4C1AC0EEA3
:101D7000212A464D20352D68C5F3080501EE905AFD
:101D8000F8EE611A72EEA11AF7EE002A00E077E091
:101D900071EEA21A62EE211AB0EE611A5EE03D4DBC
:101DA000B5FBF1F501EE905AB8EE612ADFED3B1A72
:101DB000C0EE212A354D20352D68C5F3080501EE0A
:101DC000905AF8EE611A72EEA11AF7EE002A71EE3F
:101DD000A21A62EE211AB0EE611A3FE02E4DB5FB59
:101DE000F1F501EE905AB8EE612ADFED2C1AC0EE43
:101DF000212A264D20352D68C5F3080500E00EE0A8
:101E000001EE905AF8EE611A72EEA11AF7EE002A6E
:101E100071EEA21A62EE211AB0EE611A1EE01D4D9B
:101E2000B5FBF1F501EE905AF8EE612ADFED1B1AD1
:101E300080EE212A154D20352D68C5F3080501EEE9
:101E4000905AF8EE611A72EE211AB7EE002A71EE7E
:101E5000821A62EEA11AB0EE611A00BF00BF0B4DEC
:101E600020352D68C5F346256D1C00EE905AF8EE1E
:101E7000601A81EE212AFCEEC21A11EE900A01E0EE
:101E8000044800BF00BF70BD0000000010440258AD
:101E90000090D00300093D0040787D01000000461D
:101EA00070B504460025207800F00100002872D0AB
:101EB000F948006800F0380010280CD0F648006897
:101EC00000F03800182812D1F3481830006800F0EC
:101ED000030002280BD1F04810380068C0F34040DE
:101EE00000286DD0606800286AD1012070BD00BF55
:101EF0006068B0F5803F08D1E7481038006840F4CA
:101F00008030E549103908602EE0606868B9E24821
:101F10001038006820F48030DF4910390860084626
:101F2000006820F4802008601EE06068B0F5A02FF3
:101F30000DD1D9481038006840F48020D6491039B6
:101F400008600846006840F4803008600CE0D24821
:101F50001038006820F48030CF49103908600846F6
:101F6000006820F48020086000BF6068A0B1FEF720
:101F7000FFFB054608E0FEF7FBFB401B41F2883102
:101F8000884201D90320B1E7C34810380068C0F384
:101F900040400028EFD013E0FEF7EAFB054608E0DA
:101FA000FEF7E6FB401B41F28831884201D903204D
:101FB0009CE7B94810380068C0F340400028EFD1D2
:101FC000207800F00200022847D1B348006800F0F2
:101FD000380058B1B048006800F0380018283ED1E9
:101FE000AD481830006800F00300B8BBAA481038AC
:101FF0000068C0F3800018B1E06808B9012075E7F7
:10200000A5481038006820F01900E1680843A2498B
:1020100010390860FEF7ACFB054606E0FEF7A8FBAA
:10202000401B022801D9032060E79B481038006854
:10203000C0F380000028F1D097480C38006820F4E5
:102040007C304FF47C3292FAA2F2B2FA82F2216929
:102050009140084390490C3908604AE0FFE7E06886
:1020600068B38D481038006820F01900E168084313
:10207000894910390860FEF77BFB054606E0FEF74C
:1020800077FB401B022801D903202FE78248103834
:102090000068C0F380000028F1D07F480C38006849
:1020A00020F47C304FF47C3292FAA2F2B2FA82F23F
:1020B00021699140084378490C39086019E0764855
:1020C0001038006820F00100734910390860FEF7ED
:1020D0004FFB054606E0FEF74BFB401B022801D9EB
:1020E000032003E76C4810380068C0F38000002824
:1020F000F1D1207800F01000102877D166480068F0
:1021000000F0380008280CD06348006800F0380060
:10211000182823D160481830006800F00300012817
:102120001CD15D4810380068C0F3002020B1E06980
:10213000802801D00120D9E657480C38006820F0EB
:10214000F8404FF0F84292FAA2F2B2FA82F2216A13
:102150009140084350490C39086047E0E06958B3A2
:102160004D481038006840F080004B491039086035
:10217000FEF7FEFA054606E0FEF7FAFA401B0228D3
:1021800001D90320B2E6444810380068C0F30020AB
:102190000028F1D040480C38006820F0F8404FF09B
:1021A000F84292FAA2F2B2FA82F2216A914008430E
:1021B00039490C39086019E037481038006820F0B8
:1021C0008000354910390860FEF7D2FA054606E06E
:1021D000FEF7CEFA401B022801D9032086E62E48DE
:1021E00010380068C0F300200028F1D1207800F0FA
:1021F0000800082836D16069D0B1274864300068EB
:1022000040F00100244964310860FEF7B1FA054648
:1022100006E0FEF7ADFA401B022801D9032065E66F
:102220001D4864300068C0F340000028F1D019E078
:1022300019486430006820F00100174964310860D3
:10224000FEF796FA054606E0FEF792FA401B0228D2
:1022500001D903204AE6104864300068C0F340000A
:102260000028F1D1207800F02000202834D1A06986
:10227000D8B109481038006840F480500649103938
:102280000860FEF775FA054608E0FEF771FA401B94
:10229000022803D9032029E610440258AF480068F9
:1022A000C0F340300028F0D016E0AC48006820F4BD
:1022B0008050AA490860FEF75BFA054606E0FEF783
:1022C00057FA401B022801D903200FE6A3480068F3
:1022D000C0F340300028F2D1207800F00400042838
:1022E0007DD19F48006840F480709D490860FEF7EA
:1022F0003FFA054606E0FEF73BFA401B642801D989
:102300000320F3E59648006800F480700028F2D0BE
:1023100000BFA068012808D190487030006840F0E4
:1023200001008E49703108602DE0A06868B98B48C3
:102330007030006820F0010088497031086008465C
:10234000006820F0040008601DE0A06805280DD199
:1023500082487030006840F00400804970310860A5
:102360000846006840F0010008600CE07B487030CF
:10237000006820F001007949703108600846006863
:1023800020F00400086000BFA068A0B1FEF7F0F9DB
:10239000054608E0FEF7ECF9401B41F2883188421F
:1023A00001D90320A2E56D4870300068C0F34000F9
:1023B0000028EFD013E0FEF7DBF9054608E0FEF752
:1023C000D7F9401B41F28831884201D903208DE5BD
:1023D000624870300068C0F340000028EFD1606AA6
:1023E00000287CD05D481030006800F038001828C4
:1023F00076D0606A022874D15848006820F0807056
:1024000056490860FEF7B4F9054606E0FEF7B0F954
:10241000401B022801D9032068E550480068C0F33A
:1024200040600028F2D100BFD4E90A1041EA001050
:102430004A492831096840F2F33291430843474939
:1024400028310860208E401EC0F30800616B491ED1
:102450004FF47E4202EA41210843218F491ED201F6
:1024600002EA014108433C21095D491E120202EAC9
:102470000161084339493031086000BF081D006818
:102480004FF6F87188434FF6F87292FAA2F2B2FA58
:1024900082F2A16C914008433049343108602F48E2
:1024A0002C30006820F00C00216C08432B492C31A3
:1024B00008600846006820F00200616C0843274964
:1024C0002C3108600846006840F4803008600846F7
:1024D000006840F4003008600846006802E03BE015
:1024E00038E01FE040F4802008600846006840F0B3
:1024F000010008601948006840F0807017490860C2
:10250000FEF736F9054606E0FEF732F9401B0228D1
:1025100001D90320EAE411480068C0F340600028B4
:10252000F2D019E00D48006820F080700B49086077
:10253000FEF71EF9054606E0FEF71AF9401B0228D1
:1025400001D90320D2E405480068C0F340600028A8
:10255000F2D101E00120C9E40020C7E400440258A0
:102560000048025870B504460E4615460CB90120C5
:1025700070BD94F8450028B9002084F84400204636
:1025800000F024F804F108012068FDF751FF3146FE
:10259000A2682068FDF78CFF2946E36AD4E90102AE
:1025A000FDF722FFA168206850F8210040F00100EB
:1025B000A268216841F822000348006840F000400A
:1025C000014908600020D3E700400052704770B511
:1025D00004462546681EB0F1807F01D301200FE03C
:1025E000681E4FF0E02148610F214FF0FF3002F0EC
:1025F000E7F900204FF0E021886107200861002002
:1026000070BD70477047704710B504462068006978
:10261000C0F34000D8B12068C068C0F34000B0B13A
:102620006FF002002168086101202077206880692E
:1026300000F0030018B12046FFF7E5FF05E0204653
:1026400000F0BEF8204600F091F9002020772068C5
:102650000069C0F38000D8B12068C068C0F3800072
:10266000B0B16FF004002168086102202077206873
:10267000806900F4407018B12046FFF7C4FF05E000
:10268000204600F09DF8204600F070F900202077E9
:1026900020680069C0F3C000D8B12068C068C0F3EA
:1026A000C000B0B16FF008002168086104202077F5
:1026B0002068C06900F0030018B12046FFF7A3FFAF
:1026C00005E0204600F07CF8204600F04FF900209D
:1026D000207720680069C0F30010D8B12068C06876
:1026E000C0F30010B0B16FF010002168086108203D
:1026F00020772068C06900F4407018B12046FFF7C9
:1027000082FF05E0204600F05BF8204600F02EF93D
:10271000002020772068006900F0010058B120688F
:10272000C06800F0010030B16FF00100216808615D
:10273000204600F055F920680069C0F3C01058B178
:102740002068C068C0F3C01030B16FF0800021680D
:1027500008612046FFF755FF20680069C0F300209C
:1027600058B12068C068C0F3C01030B16FF080006D
:10277000216808612046FFF744FF20680069C0F324
:10278000801058B12068C068C0F3801030B16FF07D
:10279000400021680861204600F023F920680069A4
:1027A000C0F3401058B12068C068C0F3401030B189
:1027B0006FF02000216808612046FFF723FF10BD5D
:1027C000704770B504460D46164600BF94F83C00AD
:1027D000012801D1022070BD012084F83C0000BF17
:1027E000022084F83D000C2E51D005DC4EB1042EA1
:1027F0001ED0082E7AD133E0102E60D0142EF9D1DD
:1028000075E02946206801F033F82068806940F0BF
:102810000800216888612068806920F00400216830
:10282000886120688069296908432168886177E0A8
:102830002946206801F074F82068806940F400603F
:10284000216888612068806920F48060216888613F
:1028500020688069296940EA0120216888615FE079
:102860002946206801F0BAF82068C06940F00800E5
:102870002168C8612068C06920F004002168C8612F
:102880002068C069296908432168C86148E0294671
:10289000206801F0FDF82068C06940F400602168FC
:1028A000C8612068C06920F480602168C861206820
:1028B000C069296940EA01202168C86130E02946E1
:1028C000206801F021F92068406D40F0080021687F
:1028D00048652068406D20F0040021684865206844
:1028E000406D296908432168486519E017E02946C9
:1028F000206801F041F92068406D40F400602168D3
:1029000048652068406D20F4806021684865206833
:10291000406D296940EA01202168486500E000BF58
:1029200000BF012084F83D0000BF002084F83C0077
:1029300000BF00BF4FE710B504460CB9012010BD21
:1029400094F83D0028B9002084F83C00204600F0AF
:102950000CF8022084F83D00211D206800F014FFCF
:10296000012084F83D000020E9E77047704700002F
:1029700030B504460D4601222946206800F06AFF62
:102980001249206888420FD01149206888420BD034
:1029900010492068884207D00F492068884203D038
:1029A0000E492068884201D1012000E0002028B1B2
:1029B0002068406C40F4004021684864206800882A
:1029C00040F0010021680880002030BD0000014077
:1029D0000004014000400140004401400048014023
:1029E0007047704710B504460CB9012010BDA069AE
:1029F00000B100E000BF94F8790028B9002084F805
:102A00007800204600F02AF8242084F87900206815
:102A1000006820F0010021680860204601F096F966
:102A2000012800D1E2E7606B10B1204601F0DEF82A
:102A30002068406820F490402168486020688068E1
:102A400020F02A00216888602068006840F00100BA
:102A500021680860204601F03EF9C7E77047000092
:102A600000B59BB04C2108A8FDF76CFC1C2101A807
:102A7000FDF768FC18480890184809900520019057
:102A800002200290039001200490022005900690FD
:102A9000002007900A9000210B910C9120210D91AC
:102AA00000210E910F9110914FF48051119100214E
:102AB00012911391149115911691179101AA01A9E0
:102AC00008A8FFF74FFD20B14FF4927104A0FDF765
:102AD00087FC1BB000BD00000040005204410052C2
:102AE0002E2E5C2E2E5C557365725C6273705C7367
:102AF00072635C6273705F666D635F696F2E630003
:102B000000B587B000BF3E48006840F008003C496F
:102B100008600846006800F00800019000BF00BF90
:102B200000BF0846006840F01000086008460068D2
:102B300000F01000019000BF00BF00BF0846006811
:102B400040F0400008600846006800F04000019036
:102B500000BF00BF00BF0846006840F0800008606A
:102B60000846006800F08000019000BF00BF00BF71
:102B70000846006840F4807008600846006800F469
:102B80008070019000BF00BF00BF1D480C38006876
:102B900040F480501A490C3908600846006800F477
:102BA0008050019000BF00BF0220039001200490DC
:102BB000032005900C2006904CF2B370029002A9FD
:102BC0001048FDF7AFFC4FF68070029002A90E4846
:102BD000FDF7A8FC0320029002A90C48FDF7A2FC17
:102BE0004FF47F40029002A90948FDF79BFC40F298
:102BF000CF60029002A90748FDF794FC07B000BD22
:102C0000E0440258000C0258001002580018025804
:102C1000001C02580020025829B9084A1268824351
:102C2000064B1A6004E0054A12680243034B1A601F
:102C3000024A1268024B1A60704700002000002010
:102C40000010006010B53249096801F0004149B137
:102C50002F49096841F000412D4A11608169891CA2
:102C6000816110BD2A49083909682A4A1162284938
:102C7000091F097882F824102549C91E0978916234
:102C800023490C310968D1622149891E09881186BE
:102C90001F49096851631E49091D096891631C4950
:102CA00010310968D1631CA200210BE0535C254C54
:102CB000238500BF234BDB6903F04003002BF9D0D1
:102CC0004B1CD9B22929F1D300211F4A116000BF42
:102CD0001D4909680029FBD00E4A0168116041684E
:102CE000516081689160C168D16001691161416979
:102CF000516181699161C169D1610021124A1160FC
:102D000000BF114909680029FBD000BFA9E70000F6
:102D10002CED00E0B81100200D0A456E746572209C
:102D2000486172644661756C745F48616E646C657D
:102D3000722C2053797374656D2048616C742E0D6C
:102D40000A000000001001403800002000B5B5B0B6
:102D50000120019000201F9001A8FEF773F800BF2A
:102D60006548006840F00100634908600846006853
:102D700000F00100009000BF00BF00BF08460068DF
:102D800040F0010008600846006800F00100009073
:102D900000BF00BF00BF58481030006840F010006E
:102DA0005549103108600846006800F01000009096
:102DB00000BF00BF4FF4007030900220319001201E
:102DC0003290032033900720349030A94B48FDF710
:102DD000A9FB4FF4806030900720349030A9474819
:102DE000FDF7A0FB012200212520FDF77CFD252019
:102DF000FDF769FD0C2300224FF4E131404802F059
:102E000055F83F48006A40F040003D4908620846D6
:102E1000008B40F0080008830846006840F020005E
:102E2000086000BF3448006840F002003249086082
:102E30000846006800F00200009000BF00BF00BF1D
:102E40000846006840F0020008600846006800F08C
:102E50000200009000BF00BF00BF27480830006894
:102E600040F480202449083108600846006800F4D6
:102E70008020009000BF00BF4FF48060309002209F
:102E8000319001203290032033900720349030A9F4
:102E90001C48FDF747FB4FF400603090072034904A
:102EA00030A91848FDF73EFB032200212720FDF73B
:102EB0001AFD2720FDF707FD0C2300224FF41651C1
:102EC000114801F0F3FF10482030006840F0400046
:102ED0000D49203108600C481830008840F0080087
:102EE0000949183108800848006840F02000064968
:102EF000086035B000BD0000E044025800000258F0
:102F00000010014000040258004800402DE9F04143
:102F10000446082C17DA0026FF27002508E028467B
:102F200000F030F810B1701CC6B22F46681CC5B254
:102F3000082DF4DB012E04D1A74202D10120BDE807
:102F4000F0810020FBE7082C0BD1002000F01AF8DC
:102F500028B1012000F016F808B10120EFE70020A9
:102F6000EDE7092C0BD1012000F00CF828B102206C
:102F700000F008F808B10120E1E70020DFE70020B9
:102F8000DDE7000001460B4850F831000069094BAD
:102F900003EBC1039B88184008B9002200E001221E
:102FA000044800EBC1008079904201D101207047B4
:102FB0000020FCE7505000081FB5FDF74DFC012034
:102FC0008DF800004FF01050019012208DF808008D
:102FD00003208DF80B0001208DF80F008DF80E00F6
:102FE00000208DF80D008DF8010001208DF80A00F9
:102FF00000208DF809008DF80C006846FDF7FEFBF7
:1030000001208DF800004FF0C04001900F208DF896
:10301000080003208DF80B0001208DF80F00002020
:103020008DF80E008DF80D0001208DF801000020B4
:103030008DF80A008DF809008DF80C006846FDF740
:10304000DDFB0420FDF71EFC1FBD00BFFEE770473F
:10305000704700002DE9F04104460E46002748481D
:10306000006800F00300032802D10120BDE8F081D0
:1030700043482838006820F08060414928390860BA
:10308000FDF776FB054606E0FDF772FB401B0228C4
:1030900001D90320EAE73A4828380068C0F3C06045
:1030A0000028F1D100BF3648006820F47C30216848
:1030B00040EA013032490860A088401EC0F3080091
:1030C000A168491E4FF47E4202EA41210843A189CA
:1030D000491ED20102EA01410843217C491E120225
:1030E00002EA0161084326491031086000BF244804
:1030F000001D006820F0C000616908432049091DD7
:1031000008600846006820F02000A16908431C49B7
:10311000091D08602EB90846006840F400200860C8
:1031200012E0012E08D11648001D006840F48010FE
:103130001349091D086007E01148001D006840F4AC
:1031400000100F49091D08600D482838006840F03C
:1031500080600B4928390860FDF70AFB054606E048
:10316000FDF706FB401B022801D903207EE7044837
:1031700028380068C0F3C0600028F1D0384675E7F1
:10318000284402582DE9F04104460E4600274848DD
:10319000006800F00300032802D10120BDE8F0819F
:1031A00043482838006820F0805041492839086099
:1031B000FDF7DEFA054606E0FDF7DAFA401B0228C5
:1031C00001D90320EAE73A4828380068C0F3407084
:1031D0000028F1D100BF3648006820F07C702188BB
:1031E00040EA015032490860A088401EC0F3080040
:1031F000A168491E4FF47E4202EA41210843A18999
:10320000491ED20102EA01410843217C491E1202F3
:1032100002EA0161084326491831086000BF2448CA
:10322000001D006820F44060616908432049091DC1
:1032300008600846006820F40070A16908431C4932
:10324000091D08602EB90846006840F48000086037
:1032500012E0012E08D11648001D006840F400005D
:103260001349091D086007E01148001D006840F07F
:1032700080700F49091D08600D482838006840F02B
:1032800080500B4928390860FDF772FA054606E0C0
:10329000FDF76EFA401B022801D903207EE704489F
:1032A00028380068C0F340700028F1D0384675E730
:1032B0002844025800B587B000BF0D48006840F0B0
:1032C00002000B4908600846006800F00200019007
:1032D00000BF00BF01200390002004900320059050
:1032E0000420029002A90348FDF71CF907B000BDB5
:1032F000E0440258000402587047000004200149CD
:10330000088070471804025804200149088070475B
:103310001A04025810B50023234C236000BF00BFDD
:1033200000BFBFF34F8F00BF00BF00BF231F18684F
:10333000C0F34E3100BFC0F3C90200BF43F6E073D3
:1033400003EA41134FF0404404EA82742343174CCC
:10335000236000BF00BF131EA2F10102EED10B1EBD
:10336000A1F10101E7D100BF00BF00BFBFF34F8F44
:1033700000BF00BF00BF0C4B703B1B6843F48033A1
:10338000094C703C236000BF00BF00BFBFF34F8FEC
:1033900000BF00BF00BF00BF00BF00BFBFF36F8F03
:1033A00000BF00BF00BF10BD84ED00E060EF00E093
:1033B00000BF00BF00BFBFF34F8F00BF00BF00BF03
:1033C00000BF00BF00BFBFF36F8F00BF00BF00BFD3
:1033D00000201449086000BF00BF00BFBFF34F8F3B
:1033E00000BF00BF00BF00BF00BF00BFBFF36F8FB3
:1033F00000BF00BF00BF0C48006840F400300A491D
:10340000086000BF00BF00BFBFF34F8F00BF00BF09
:1034100000BF00BF00BF00BFBFF36F8F00BF00BF82
:1034200000BF704750EF00E014ED00E0704700006F
:1034300010B5FDF7A3F90448007800B910BD00F0FD
:1034400005F800BFFAE700001C00002010B51B487B
:10345000006840B119480068401E1849086010B95A
:10346000012017490870002408E004EB4401154AC4
:1034700002EB810001F04EFD601CC4B2042CF4DBB1
:1034800011480068401C10490860084600686FF049
:103490000041884202D100200B49086001F0F2FC93
:1034A0000A480078401CC0B2084908700A2803DBAB
:1034B0000020087001F0E2FC10BD000010000020A8
:1034C00014000020F0000020180000201D00002043
:1034D00010B59CB000243A48006820F00400384938
:1034E000086000BF0020009035480C30006840F4B0
:1034F000404033490C3108600846006800F4404001
:10350000009000BF00BF00BF2D480C30006800F4E1
:103510000050B0F5005FF7D1012001900004029047
:1035200000200490089002200A9002210B910521AE
:103530000C91A0210D9102210E91109104210F9167
:10354000002112910821119101A8FEF7A9FC04465F
:103550001CB17B211BA0FCF743FF3F2014900320EC
:103560001590002016900820179040201890199070
:1035700000011A9040201B90042114A8FEF7FEF9C8
:1035800004461CB196210FA0FCF72AFF13480068DF
:1035900040F080001149086000BF1048F430006816
:1035A00040F002000D49F43108600846006800F060
:1035B0000200009000BF00BFFCF7AAFF1CB010BDC6
:1035C0000C4802582E2E5C2E2E5C557365725C6280
:1035D00073705C6273702E63000000000044025838
:1035E0002048006840F470001E4908601E480068CA
:1035F00040F001001C49086000201B4910310860A0
:103600001948006819490840174908600020164900
:1036100018310860091D0860091D08601249283129
:103620000860091D0860091D0860091D0860091D62
:103630000860091D0860091D0860091D08600A4826
:10364000006820F4802008490860002006496031A5
:103650000860012006490860C006024980390860F8
:103660007047000088ED00E0004402587FEDF6EA64
:103670000881005110B50C48006900F0020090B1BB
:103680000948C06800F0020068B14FF6FD700649B5
:1036900008610846C0684FF6FD7108400249C860DD
:1036A00002A001F075F910BD0040014054494D31B0
:1036B000352043433120B2B6BBF1CAB1BCE4B5BD3D
:1036C0000A00000070B5002500264FF080442069F4
:1036D00000F00205E06800F002065DB156B14FF659
:1036E000FD702061E0684FF6FD710840E0601E4803
:1036F00000688047206900F00405E06800F00406D7
:103700005DB156B14FF6FB702061E0684FF6FB717A
:103710000840E060154800688047206900F008050F
:10372000E06800F008065DB156B14FF6F770206111
:10373000E0684FF6F7710840E0600D480068804788
:10374000206900F01005E06800F010065DB156B188
:103750004FF6EF702061E0684FF6EF710840E060CF
:1037600004480068804770BD00000020040000206D
:10377000080000200C00002010B50248FEF744FFAE
:1037800010BD00007811002010B500220288294BDE
:1037900098420ED0B0F1804F0BD0274B984208D002
:1037A000264B984205D0264B984202D0254B984292
:1037B00003D122F070024B681A431E4B984217D077
:1037C000B0F1804F14D01C4B984211D01B4B984243
:1037D0000ED01B4B98420BD01A4B984208D01A4B74
:1037E000984205D0194B984202D0194B984203D108
:1037F00022F44072CB681A4322F080034C6943EAFA
:10380000040202808B68C3620B880385094B9842CF
:103810000BD00C4B984208D00B4B984205D00B4B69
:10382000984202D00A4B984201D10B8A03860123A9
:10383000436110BD0000014000040040000800404A
:10384000000C0040000401400040014000440140E1
:103850000048014030B50023012404FA01F3046A52
:103860009C430462046A02FA01F52C43046230BDF1
:1038700030B5002400220023056A25F00105056209
:10388000026A43688469204D2C4024F003040D68CB
:103890002C4322F002028D682A431C4DA84200D11D
:1038A0000FE01B4DA84200D10BE01A4DA84200D1F9
:1038B00007E0194DA84200D103E0184DA84206D1F7
:1038C00000BF22F00802CD682A4322F004020F4D07
:1038D000A8420BD00E4DA84208D00E4DA84205D0EC
:1038E0000D4DA84202D00D4DA84207D123F480739C
:1038F00023F400734D692B438D692B43436084612E
:103900004D684563026230BD8FFFFEFF000001403D
:1039100000040140004001400044014000480140D3
:1039200030B5002400220023056A25F01005056249
:10393000026A43688469234D2C4024F440740D6866
:1039400044EA052422F020028D6842EA05121E4D49
:10395000A84200D10FE01D4DA84200D10BE01C4D44
:10396000A84200D100BF1B4DA84200D100BF1A4D94
:10397000A84207D106E022F08002CD6842EA051293
:1039800022F04002104DA8420BD0104DA84208D0A2
:103990000F4DA84205D00F4DA84202D00E4DA842AF
:1039A00009D123F4806323F400634D6943EA85035E
:1039B0008D6943EA8503436084614D6885630262D3
:1039C00030BD0000FF8FFFFE0000014000040140F9
:1039D00000400140004401400048014030B500244F
:1039E00000220023056A25F480750562026A436897
:1039F000C46924F0700424F003040D682C4322F4FD
:103A000000728D6842EA05221C4DA84200D10FE0E9
:103A10001B4DA84200D10BE01A4DA84200D100BFB7
:103A2000194DA84200D100BF184DA84207D106E0A9
:103A300022F40062CD6842EA052222F480620F4D32
:103A4000A8420BD00E4DA84208D00E4DA84205D07A
:103A50000D4DA84202D00D4DA84209D123F4805348
:103A600023F400534D6943EA05138D6943EA0513B6
:103A70004360C4614D68C563026230BD000001400F
:103A80000004014000400140004401400048014062
:103A900030B5002200230024056A25F48055056214
:103AA000036A4468C26922F4E04222F440720D685D
:103AB00042EA052223F400538D6843EA05330D4D95
:103AC000A8420BD00C4DA84208D00C4DA84205D0FE
:103AD0000B4DA84202D00B4DA84204D124F48044DF
:103AE0004D6944EA85144460C2614D68056403620F
:103AF00030BD0000000001400004014000400140D2
:103B0000004401400048014030B500230022002459
:103B1000056A25F480350562026A4468436D23F026
:103B200070030D682B4322F400320D8942EA0542EE
:103B30000C4DA8420BD00C4DA84208D00B4DA8420A
:103B400005D00B4DA84202D00A4DA84204D124F45E
:103B500080344D6944EA0524446043654D688565B9
:103B6000026230BD000001400004014000400140FD
:103B7000004401400048014030B5002200230024E9
:103B8000056A25F480150562036A4468426D22F4D3
:103B9000E0420D6842EA052223F400130D8943EA4E
:103BA00005530D4DA8420BD00C4DA84208D00C4D2A
:103BB000A84205D00B4DA84202D00B4DA84204D11B
:103BC00024F400344D6944EA8524446042654D681C
:103BD000C565036230BD00000000014000040140E3
:103BE00000400140004401400048014090F834107A
:103BF00001F0010139B10168496821F40031826B9B
:103C000011430268516090F8341001F0020139B19B
:103C10000168496821F48031C26B11430268516028
:103C200090F8341001F0040139B10168496821F4B9
:103C30008021026C11430268516090F8341001F049
:103C4000080139B10168496821F40041426C11430F
:103C50000268516090F8341001F0100139B1016828
:103C6000896821F48051826C11430268916090F858
:103C7000341001F0200139B10168896821F4005144
:103C8000C26C11430268916090F8341001F0400159
:103C900099B10168496821F48011026D11430268ED
:103CA0005160016DB1F5801F07D10168496821F4A9
:103CB000C001426D11430268516090F8341001F068
:103CC000800139B10168496821F40021826D1143F6
:103CD00002685160704738B5044600250020E0674F
:103CE000FCF746FD05462068006800F0080008283B
:103CF0000CD16FF07E402B4600224FF40011009053
:103D0000204600F0F5FC08B1032038BD20680068AB
:103D100000F0040004280CD16FF07E402B460022F6
:103D20004FF480010090204600F0E2FC08B103202F
:103D3000EBE7202084F8790084F87A0000BF0020A7
:103D400084F8780000BF00BFDFE700002DE9F04FE6
:103D500089B0044600254FF08008A946AA460020F5
:103D60000890FA492068884201D1012000E0002033
:103D700000B100E000BFA06AB0F1005F00D100BF59
:103D80002169A068084361690843E16940EA0105C7
:103D9000A06A054320680068ED490840284321686F
:103DA00008602068406820F44050E16808432168BA
:103DB0004860A569E5492068884201D1012000E0FA
:103DC000002008B9206A0543A06AB0F1005F03D162
:103DD000D4E90B010843054320688068DD490840A9
:103DE0002843216888602068C06A20F00F00616A5B
:103DF00008432168C86200BFD7492068884224D19F
:103E0000D648006800F03800182814D005DC48B106
:103E100008280AD0102817D10AE020280ED0282818
:103E200012D10EE04FF001080EE04FF004080BE055
:103E30004FF0400808E04FF0080805E04FF0100888
:103E400002E04FF0200800BF17E1C5492068884212
:103E50001DD1C248006800F00700062816D2DFE82E
:103E600000F00306090C0F124FF000080EE04FF0AF
:103E700004080BE04FF0400808E04FF0080805E0A8
:103E80004FF0100802E04FF0200800BFF5E0B54900
:103E9000206888421DD1B148006800F0070006285C
:103EA00016D2DFE800F00306090C0F124FF00008ED
:103EB0000EE04FF004080BE04FF0400808E04FF030
:103EC000080805E04FF0100802E04FF0200800BF9E
:103ED000D3E0A549206888421DD1A048006800F0C1
:103EE0000700062816D2DFE800F00306090C0F12BF
:103EF0004FF000080EE04FF004080BE04FF04008D0
:103F000008E04FF0080805E04FF0100802E04FF01D
:103F1000200800BFB1E09549206888421DD18F4834
:103F2000006800F00700062816D2DFE800F003065C
:103F3000090C0F124FF000080EE04FF004080BE0E0
:103F40004FF0400808E04FF0080805E04FF0100877
:103F500002E04FF0200800BF8FE0854920688842CA
:103F600024D17E48006800F03800182814D005DC01
:103F700048B108280AD0102817D10AE020280ED00E
:103F8000282812D10EE04FF001080EE04FF004088F
:103F90000BE04FF0400808E04FF0080805E04FF054
:103FA000100802E04FF0200800BF66E07149206869
:103FB00088421DD16948006800F00700062816D223
:103FC000DFE800F00306090C0F124FF000080EE0C6
:103FD0004FF004080BE04FF0400808E04FF00808ED
:103FE00005E04FF0100802E04FF0200800BF44E069
:103FF0006149206888421DD15848006800F00700D8
:10400000062816D2DFE800F00306090C0F124FF065
:1040100000080EE04FF004080BE04FF0400808E005
:104020004FF0080805E04FF0100802E04FF02008BC
:1040300000BF22E04549206888421ED14748001D44
:10404000006800F00700062816D2DFE800F003063B
:10405000090C0F124FF002080EE04FF004080BE0BD
:104060004FF0400808E04FF0080805E04FF0100856
:1040700002E04FF0200800BF00BF00BF33492068B6
:10408000884201D1012000E0002000285DD00025F9
:10409000B8F1100F33D009DCB8F1020F10D0B8F12D
:1040A000040F11D0B8F1080F2ED117E0B8F1200F8E
:1040B00027D0B8F1400F0CD0B8F1800F24D124E004
:1040C000FCF77EFC054623E005A8FCF78FFC069D67
:1040D0001EE002A8FCF7A0FD039D19E01F4854381C
:1040E0000068C0F3401040B11C4854380068C0F369
:1040F000C101224820FA01F500E0204D08E0204DE2
:1041000006E04FF4004503E000BF0120089000BF27
:1041100000BF002D0AD0606800EB4000A84203D821
:1041200060680003A84202D201200890D4E2B8F1EE
:10413000100F7CD026DCB8F1020F2DD0B8F1040F9F
:1041400052D0B8F1080F73D19EE03FE1000C005847
:10415000F369FFCFFFF4FF110010014054440258EF
:104160000044004000480040004C00400050004027
:104170000014014000780040007C00400090D00313
:1041800000093D00B8F1200F7DD0B8F1400F54D0A8
:10419000B8F1800FD7D109E1FCF712FC00270646E1
:1041A000FB49606A31F810C062463B4630463946EA
:1041B000FCF790F84FF4807600220346A3FB060735
:1041C00001FB067103FB021361684908064671187A
:1041D0005A41CDE90012666832460023084601992B
:1041E000FCF778F80546E4E005A8FCF7FFFBDDF8EE
:1041F00018C0E749606A31F810B05A46002360469B
:104200001946FCF767F84FF4807C0022A0FB0C3BBA
:1042100001FB0CB100FB0210616849085E1840EB1D
:104220000201D4F804C062460023304601E079E080
:10423000BBE0FCF74FF80546BBE002A8FCF7ECFC3E
:10424000DDF80CC0D249606A31F810B05A4600233C
:1042500060461946FCF73EF84FF4807C0022A0FB34
:104260000C3B01FB0CB100FB0210616849085E18B1
:1042700040EB0201D4F804C0624600233046FCF74C
:1042800029F8054695E06EE0C2480068C0F340108A
:1042900038B3C0480068C0F3C101BF4820FA01FC30
:1042A000BB49606A31F810B05A460023604619468F
:1042B000FCF710F84FF4807C0022A0FB0C3B01FBC4
:1042C0000CB100FB0210616849085E1840EB020166
:1042D000D4F804C0624600233046FBF7FBFF0546D6
:1042E0001FE0AB49606A31F810C062460023AA485B
:1042F0001946FBF7EFFF4FF4807C0022A0FB0C3B3C
:1043000001FB0CB100FB0210616849085E1840EB2C
:104310000201D4F804C0624600233046FBF7DAFFFE
:10432000054646E09A49606A31F810C062460023AB
:104330009A481946FBF7CEFF4FF4807C0022A0FB81
:104340000C3B01FB0CB100FB0210616849085E18D0
:1043500040EB0201D4F804C0624600233046FBF76C
:10436000B9FF054625E08A49606A31F810C0624607
:1043700000234FF400401946FBF7ACFF4FF4807C5C
:104380000022A0FB0C3B01FB0CB100FB021061689A
:1043900049085E1840EB0201D4F804C062460023CD
:1043A0003046FBF797FF054603E000BF0120089069
:1043B00000BF00BFB5F5407F05D3B5F5801F02D221
:1043C0002068C56088E10120089085E1E069B0F5CA
:1043D000004F7CD1B8F1100F7AD00CDCB8F1000F8F
:1043E00013D0B8F1010F21D0B8F1040F2FD0B8F1DC
:1043F000080F6ED151E0B8F1200F6BD0B8F1400F2B
:1044000038D0B8F1800F64D197E0FDF7FBFB604A2C
:10441000616A32F81110B0FBF1F04000616800EB06
:104420005100B0FBF1F01FFA80FA89E0FDF700FCC3
:10443000574A616A32F81110B0FBF1F04000616830
:1044400000EB5100B0FBF1F01FFA80FA78E005A80C
:10445000FCF7CCFA06994E4A606A32F81000B1FBBC
:10446000F0F04000616800EB5100B0FBF1F01FFA82
:1044700080FA65E002A8FCF7CFFB0399444A606A22
:1044800032F81000B1FBF0F04000616800EB510021
:10449000B0FBF1F01FFA80FA52E03E480068C0F32A
:1044A0004010C0B13B480068C0F3C1013A48C84061
:1044B000374A616A32F81110B0FBF1F040006168D0
:1044C00000EB5100B0FBF1F01FFA80FA12E044E07B
:1044D00011E031E01FE02E49606A31F810002E49EA
:1044E000B1FBF0F04000616800EB5100B0FBF1F06F
:1044F0001FFA80FA24E02649606A31F81000274943
:10450000B1FBF0F04000616800EB5100B0FBF1F04E
:104510001FFA80FA14E01E49606A31F810004FF467
:104520000041B1FBF0F04000616800EB5100B0FBCE
:10453000F1F01FFA80FA03E000BF0120089000BFED
:1045400000BF4FF6F0700AEA0009CAF3420049EAD8
:1045500000092068C0F80C90BEE0B8F1100F7CD0C4
:104560000CDCB8F1000F1BD0B8F1010F29D0B8F165
:10457000040F37D0B8F1080F70D159E0B8F1200F0F
:104580006DD0B8F1400F40D0B8F1800F66D19FE0F8
:1045900090500008004402580090D00300093D00EC
:1045A000FDF730FB4E4A616A32F81110B0FBF1F0B2
:1045B000616800EB5100B0FBF1F080B22168C86087
:1045C00089E0FDF735FB464A616A32F81110B0FB0D
:1045D000F1F0616800EB5100B0FBF1F080B22168AE
:1045E000C86078E005A8FCF701FA06993C4A606AC1
:1045F00032F81000B1FBF0F0616800EB5100B0FB45
:10460000F1F080B22168C86065E002A8FCF704FB05
:104610000399334A606A32F81000B1FBF0F0616828
:1046200000EB5100B0FBF1F080B22168C86052E0AD
:104630002C480068C0F34010C0B12A480068C0F39D
:10464000C1012948C840264A616A32F81110B0FBFE
:10465000F1F0616800EB510002E017E037E025E07F
:10466000B0FBF1F080B22168C8600EE01C49606ABE
:1046700031F810001C49B1FBF0F0616800EB51000B
:10468000B0FBF1F080B22168C86024E01449606A90
:1046900031F810001549B1FBF0F0616800EB5100F2
:1046A000B0FBF1F080B22168C86014E00C49606A88
:1046B00031F810004FF40041B1FBF0F0616800EBFD
:1046C0005100B0FBF1F080B22168C86003E000BF88
:1046D0000120089000BF00BF089809B0BDE8F08F26
:1046E00090500008004402580090D00300093D009B
:1046F0002DE9F04104460D4617469846069E21E0F6
:10470000701CF8B12EB1FCF733F8A0EB0800B042F2
:1047100018D92068006820F4D070216808602068EB
:10472000806820F0010021688860202084F87900EA
:1047300084F87A0000BF002084F8780000BF0320CE
:10474000BDE8F0812068C0692840A84201D101205D
:1047500000E00020B842D3D00020F1E710B50248B5
:1047600000F00CF810BD00002001002010B5024838
:1047700000F004F810BD00004C0900202DE9F041C4
:1047800004462068C569206806682068D0F808805B
:1047900005F02000D8B12068808CC7B2E18AA068FB
:1047A0004754E08A401C80B2E082E189884201DB04
:1047B0000020E082608BE189884202DA608B401C35
:1047C0006083606A10B13846616A884700BF05F0AF
:1047D000800028B306F0800010B3A08A60B920687A
:1047E000006820F08000216808602068006840F0C0
:1047F00040002168086013E0012084F82800618AE5
:104800006068405C21680885608A401C80B26082D4
:10481000A189884201DB00206082A08A401EA0821C
:1048200005F0400018B306F0400000B3A08A68B954
:104830002068006820F0400021680860206A08B104
:10484000206A8047002084F8280010E0618A6068B0
:10485000405C21680885608A401C80B26082A18922
:10486000884201DB00206082A08A401EA08220686E
:10487000006A40F00100216808622068006A40F088
:104880000200216808622068006A40F00400216884
:1048900008622068006A40F0080021680862206809
:1048A000006A40F01000216808622068006A40F049
:1048B0004000216808622068006A40F48070216826
:1048C00008622068006A40F400702168086220686D
:1048D000006A40F40030216808622068006A40F4F1
:1048E0008010216808622068006A40F0200021687A
:1048F0000862BDE8F081000019481A4908601A48AA
:1049000048601A4888604FF480608881C881002020
:1049100008824882C882088348838882C861086206
:10492000486281F82800124812490860124848601D
:10493000124888604FF480608881C8810020088216
:104940004882C8820883488388820D48C8610D4820
:1049500008620D484862002081F828007047000076
:1049600000100140200100204C0100204C050020D7
:10497000004800404C09002078090020780D0020F4
:10498000FD32000809330008F932000800BFFEE7D5
:104990000FB4054B10B503A9044A029800F033F890
:1049A00010BC5DF814FB0000314F00083C000020F3
:1049B00002480068C0F30220704700000CED00E0E0
:1049C00010B5002804DB0A07130E054A135406E04D
:1049D0000A07140E034A00F00F031B1FD45410BD26
:1049E00000E400E018ED00E002E008C8121F08C172
:1049F000002AFAD170477047002001E001C1121F60
:104A0000002AFBD170472DE9F84F99469246884617
:104A10000546002706E025280AD051464A46904719
:104A20006D1C7F1C28780028F5D13846BDE8F88F2A
:104A3000002315F8011F18462E2915D115F8011F5E
:104A400004232A290DD06FF02F022978A1F1300418
:104A5000092C09D800EB800002EB400008446D1CD3
:104A6000F3E758F8040B6D1C2A78002ADDD0632A7E
:104A700007D0732A0FD0104651464A4690477F1CF4
:104A80002AE018F8042B8DF8002000218DF8011081
:104A90006E46012103E058F8046B4FF0FF315A07CE
:104AA0004FF0000401D409E0641C84420BDA8C420C
:104AB000FADB325D002AF7D105E0641C8C42FCDB96
:104AC000305D0028F9D1274404E016F8010B514667
:104AD0004A469047641EF8D26D1CA3E770B50546A0
:104AE000304800EB05142846FEF710FA00283ED0A7
:104AF0002079052802DA0520207152E020790A2861
:104B000003DA2079401C20714BE0A07A38B90120EB
:104B1000A07205EB4501491CC8B200F09FF920893D
:104B200000283EDDE088218988420DDAE088401CBB
:104B300080B2E0802189884233D105EB4501C91C50
:104B4000C8B200F08BF92CE0E07A002829DD207B48
:104B5000401CC0B22073E17A884222DB002020731F
:104B600005EB4501491CC8B200F078F919E020793D
:104B7000052802DD0520207110E0207918B1207988
:104B8000401E20710AE0A07A012807D10020A072FF
:104B900005EB4501891CC8B200F060F90020E080F7
:104BA000207370BD4000002010B5FEF705FAFBF73A
:104BB00010FCFBF7EFFDFEF78BFC00F01BF800F09C
:104BC000C9F800F019F900F003F800F0B5F810BDCD
:104BD00010B5FDF795FFFDF743FF40F6147003494C
:104BE0000860084600680249086010BD20000020E7
:104BF0000010006010B500F063F800F001F810BD7F
:104C000010B586B000BF2C48006840F002002A4969
:104C100008600846006800F00200009000BF00BF76
:104C200000BF0846006840F00400086008460068BD
:104C300000F00400009000BF00BF00BF08460068FD
:104C400040F0400008600846006800F04000009016
:104C500000BF00BF00BF0846006840F08000086049
:104C60000846006800F08000009000BF00BF00BF51
:104C70000846006840F4807008600846006800F448
:104C80008070009000BF00BF0020029003900320BE
:104C9000049000240CE0094800EBC40080880190D7
:104CA000064951F8340001A9FBF73CFC601CC4B272
:104CB000082CF0DB06B010BDE0440258505000084C
:104CC00010B500201A498872C8720873002418E0D1
:104CD0006420184901EB041108810220154901EBF9
:104CE000041108710020134901EB04118872114965
:104CF00001EB0411C8720F4901EB04110873601C29
:104D0000C4B20A2CE4DB06226421032000F0BCF8C4
:104D100006226421042000F0B7F806226421052051
:104D200000F0B2F806226421104600F0ADF810BD84
:104D3000E00000204000002010B5012000F06FF8D6
:104D4000022000F06CF8032000F069F8042000F065
:104D500066F810BD70B5002016E0002100EB40029F
:104D6000204B03EB8202516000EB400203EB820216
:104D7000916000EB400203EB8202517000EB4002B5
:104D800003F82210411CC8B20428E6DB1649096862
:104D90004FF47A73B1FBF3F2511EB1F1807F00D36F
:104DA0001BE0511E4FF0E023596159170F230029D2
:104DB00004DB1C07250E0D4C655406E01C07260E6F
:104DC0000B4C01F00F052D1F665500BF00214FF061
:104DD000E02399610721196100BF0121054A117083
:104DE00070BD0000F00000203000002000E400E072
:104DF00018ED00E01C00002010B5FFF77DFDFDF769
:104E0000A5FFFEF757FA10BD10B5002404E02046B8
:104E1000FFF764FE601CC4B20A2CF8DB10BD10B5AD
:104E20000446012C04D101210002FDF7F5FE13E038
:104E3000022C04D101214802FDF7EEFE0CE0032C08
:104E400004D101218802FDF7E7FE05E0042C03D11F
:104E50000121C802FDF7E0FE10BD00000649C97A35
:104E6000054A50541146C97A491CC9B2D1720A295F
:104E700001DB0021D1727047E000002010B5FFF780
:104E8000C3FF10BD7047000010B5074B03EB0013C4
:104E90001981054B03EB0013DA720023024C04EB7B
:104EA0000014237310BD000040000020F0B5A1B035
:104EB00004460D4617461E460194029500210391B3
:104EC0000491059707910696089109910A910B9113
:104ED0000C910D9100200E9001A8FDF783FD20B1EB
:104EE00040F22A3102A0FBF77BFA21B0F0BD0000AE
:104EF0002E2E5C2E2E5C557365725C6273705C7333
:104F000072635C6273705F756172745F6669666F0D
:104F10002E630000416851B14168491E416031B9BA
:104F2000012141700178012901D1816841607047F8
:104F3000044B188500BF034AD26902F04002002AE0
:104F4000F9D0704700100140FFF72EFE322000F02C
:104F500003F800BFFEE7000010B59EB00446142120
:104F600019A8FBF7EFF900BF2A48006840F00200DB
:104F7000284908600846006800F00200019000BF60
:104F800000BF00BF23480830006840F002002149FC
:104F9000083108600846006800F00200019000BF78
:104FA00000BF0220199001201B9003201C900220BA
:104FB0001A901D9019A91848FBF7B4FA402109A8C6
:104FC000FBF7C0F91C2102A8FBF7BCF913480990B4
:104FD00042F20F700A904FF4FA710C9100210D917A
:104FE0000B910E910F9109A8FDF7A5FC602002908E
:104FF00000200490069005900890079003940022EA
:1050000002A909A8FDF7DDFB002109A8FDF7B0FC06
:105010001EB010BDE04402580004025800040040D5
:10502000010002000400060008000A000C00100045
:105030002000400080000001010002000400060082
:1050400008000A000C001000200040008000000151
:105050000020025800010000000802580020000053
:10506000001C025810000000001802580400000044
:105070000004025801000000001802580800000057
:1050800000180258800000000020025800080000AC
:10509000010002000400060008000A000C001000D5
:1050A0002000400080000001010002000400060012
:1050B00008000A000C0010002000400080000001E1
:1050C000010002000400060008000A000C001000A5
:1050D00020004000800000010100020004000600E2
:1050E00008000A000C0010002000400080000001B1
:1050F000000000000102030401020304060708097E
:10510000205100080000002040000000E84900088D
:105110006051000840000020B8210000F849000854
:10512000000000000000000000000000000000007F
:10513000000000000000000000000000000000006F
:10514000000000000000000010000000010000004E
:105150000090D0030090D003000000000000000089
:040000050800029954
:00000001FF
